:020000040000FA
:100000000C9441010C9467100C943C100C9411104A
:100010000C94E60F0C94BB0F0C94900F0C94650F8E
:100020000C943A0F0C9472010C9472010C947201AE
:100030000C9472010C9472010C9472010C94720174
:100040000C9472010C9472010C9472010C94720164
:100050000C9472010C9472010C9472010C94F00EC9
:100060000C9472010C94BA0E0C94900E0C947201C4
:100070000C9472010C9472010C9472010C94720134
:100080000C9472010C9472010C9472010C94720124
:100090000C9472010C9472010C9472010C94720114
:1000A0000C9472010C9472010C9472010C94720104
:1000B0000C9472010C9472010C9472010C947201F4
:1000C0000C9472010C9472010C9472010C947201E4
:1000D0000C9472010C9472010C9472010C947201D4
:1000E0000C9472010C94EC030C94E2020C94D20177
:1000F0000C94AF010C940B030C9419030C94EF02B5
:100100000C94DF060C9443050C94E6020C94DA027E
:100110000C94691A0C94D4020C94E0010C94F30230
:100120000C94F9020C9418020C94DE020C94E9026F
:100130000C940F030C9482010C949E0A0C943D05C0
:100140000C9401030C94BE010C9415030C94FD0255
:100150000C9465020C9414030C94DE060C940703B3
:1001600000002100240027002A002D003000330069
:1001700001010000040107010A010000220025001E
:1001800028002B002E003100340002010000050180
:1001900008010B01000020002300260029002C008C
:1001A0002F003200000100000301060109010505CE
:1001B0000505070508080808020202020A0A0808DD
:1001C000040404040101010101010101030303030B
:1001D00003030303040707070C0C0C0C0C0C0C0C9A
:1001E0000202020206060606060606060B0B0B0BAB
:1001F0000B0B0B0B010210202008081020401020D0
:1002000040800201020108040201010204081020DA
:1002100040808040201008040201800402018040D8
:100220002010080402010804020101020408102041
:100230004080010204081020408000000A0B0209DF
:100240000C0D0E0807030401000000000000000070
:10025000000000000000000000000000000000009E
:10026000000000000000121110000000000000005B
:10027000000000000000000000000000000000007E
:10028000691A11241FBECFEFD1E2DEBFCDBF00E05F
:100290000CBF24E0A4E9B3E001C01D92A236B2076E
:1002A000E1F713E0A0E0B2E0E8EAFAE300E00BBF18
:1002B00002C007900D92A439B107D9F711E0C1E44B
:1002C000D1E000E006C021970109802FFE010E94C5
:1002D000201BC034D10780E00807A9F70E949210C4
:1002E0000C94521D0C940000DB0114964D915C910E
:1002F00015976D917C91DC01ED91FC910280F38169
:10030000E02D1994AF92BF92CF92DF92EF92FF92BD
:100310000F931F93CF93DF936C017B018B01040F2D
:10032000151FEB015E01AE18BF08C017D10759F0C9
:100330006991D601ED91FC910190F081E02DC6010B
:100340001995892B79F7C501DF91CF911F910F91F5
:10035000FF90EF90DF90CF90BF90AF900895FC0199
:10036000538D448D252F30E0842F90E0821B930B1A
:10037000541710F0CF96089501970895FC01918DC0
:10038000828D981761F0A28DAE0FBF2FB11D5D96C3
:100390008C91928D9F5F9F73928F90E008958FEF65
:1003A0009FEF0895FC01918D828D981731F0828D19
:1003B000E80FF11D858D90E008958FEF9FEF089570
:1003C000FC01918D228D892F90E0805C9F4F821BD4
:1003D00091098F739927089581EC93E00E94E001C1
:1003E00021E0892B09F420E0822F0895FC01A48DDF
:1003F000A80FB92FB11DA35ABF4F2C91848D90E047
:1004000001968F739927848FA689B7892C93A08929
:10041000B1898C91837080648C93938D848D9813B3
:1004200006C00288F389E02D80818F7D8083089546
:10043000EF92FF920F931F93CF93DF93EC0181E034
:10044000888F9B8D8C8D98131AC0E889F9898081DB
:1004500085FF15C09FB7F894EE89FF896083E8890E
:10046000F98980818370806480839FBF81E090E000
:10047000DF91CF911F910F91FF90EF900895F62E8D
:100480000B8D10E00F5F1F4F0F731127E02E8C8D27
:100490008E110CC00FB607FCFACFE889F98980816C
:1004A00085FFF5CFCE010E94F601F1CFEB8DEC0F69
:1004B000FD2FF11DE35AFF4FF0829FB7F8940B8F89
:1004C000EA89FB8980818062CFCFCF93DF93EC01F3
:1004D000888D8823B9F0AA89BB89E889F9898C912C
:1004E00085FD03C0808186FD0DC00FB607FCF7CFE8
:1004F0008C9185FFF2CF808185FFEDCFCE010E94E8
:10050000F601E9CFDF91CF91089580E090E0892B4B
:1005100029F00E94EC0181110E94000080E090E02F
:10052000892B49F080E090E0892B29F00E9400009F
:1005300081110E94000080E090E0892B49F080E06A
:1005400090E0892B29F00E94000081110E94000098
:1005500080E090E0892B49F080E090E0892B29F041
:100560000E94000081110C94000008958150823196
:1005700008F05AC0E82FF0E08827EE53FD4F8F4F68
:100580000C94201BE202E602D402DA02DE0214031B
:10059000E902EF02F302F902FD02010307030B0374
:1005A00014030F0315031903809180008F77809344
:1005B00080000895809180008F7DF9CF8091800028
:1005C000877FF5CF84B58F7784BD089584B58F7DFF
:1005D000FBCF8091B0008F778093B0000895809119
:1005E000B0008F7DF9CF809190008F77809390003D
:1005F0000895809190008F7DF9CF80919000877F42
:10060000F5CF8091A0008F778093A000089580910E
:10061000A0008F7DF9CF8091A000877FF5CF8091DA
:1006200020018F77809320010895809120018F7D94
:10063000F9CF80912001877FF5CFCF93DF93282FCB
:1006400030E0F901E65CFD4F8491F901EC50FE4F7A
:10065000D491F901E255FE4FC491CC23A1F0811150
:100660000E94B602EC2FF0E0EE0FFF1FEC56FE4F9B
:10067000A591B491EC91ED2381E090E009F480E044
:10068000DF91CF91089580E090E0FACF1F93CF9350
:10069000DF93282F30E0F901E65CFD4F8491F901EA
:1006A000EC50FE4FD491F901E255FE4FC491CC239A
:1006B000A9F0162F81110E94B602EC2FF0E0EE0F88
:1006C000FF1FE658FE4FA591B4918FB7F894EC91B7
:1006D000111108C0D095DE23DC938FBFDF91CF913D
:1006E0001F910895DE2BF8CFCF93DF9390E0FC01AC
:1006F000EC50FE4F249182559E4FFC01849188233B
:10070000C9F090E0880F991FFC01E05AFE4FA591B7
:10071000B491FC01E658FE4FC591D49161110DC012
:100720009FB7F8948C91209582238C9388812823FD
:1007300028839FBFDF91CF910895623051F49FB716
:10074000F8943C91822F809583238C93E8812E2B03
:10075000EFCF8FB7F894EC912E2B2C938FBFEACF6D
:100760001F93CF93DF93EC01862F142F6883798337
:100770004A835B8322E030E03D832C8362E00E9469
:10078000740362E0812F0E94740388810E941D031C
:10079000182F8A810E941D03880F991F812B8E8339
:1007A0001F82188619861A861B861C861D861E8641
:1007B0001F86188A198A1A8ADF91CF911F9108958E
:1007C0002FB7F8946091990370919A0380919B03DD
:1007D00090919C032FBF08950895CF93DF93EC0170
:1007E0008B810E941D039C018A81823028F481E064
:1007F000232B31F080E004C081E021303105D1F7B6
:10080000DF91CF9108950F931F93CF93DF93EC0166
:10081000888199818130910581F130F0029709F446
:1008200074C01982188224C08C859D85892B89F01B
:100830000E94E0030A891B892C893D89601B710B8A
:10084000820B930B683E73408105910510F01D8665
:100850001C86CE010E94ED03882351F00E94E00324
:100860006E877F87888B998B81E090E0998388835E
:10087000DF91CF911F910F9108950E94E0030E85A3
:100880001F8528893989AB01BC01401B510B620BC4
:10089000730B8E819F81B0E0A0E0481759076A076B
:1008A0007B0730F3CE010E94ED03882309F4B9CF12
:1008B0001B861A868E8D8E7F86608E8F8C859D8599
:1008C000892B31F40E94E0036A8B7B8B8C8B9D8B90
:1008D000888599850196998788878C859D8501965D
:1008E0009D878C87EE89FF89309711F0CE0119958D
:1008F0008C859D85029730F0EC8DFD8D309711F041
:10090000CE01199582E090E0B1CFCE010E94ED03B7
:100910008823C9F10E94E0030E851F852889398943
:10092000AB01BC01401B510B620B730B8C819D8191
:10093000B0E0A0E0481759076A077B0708F498CF92
:100940000E94E0030E851F8528893989DC01CB01CF
:10095000801B910BA20BB30B2A853B85820F931F43
:100960009B878A870E94E0036E877F87888B998B9D
:10097000E88DF98D309711F0CE0119958E8D8B7F12
:1009800081608E8F75CFEA8DFB8D309709F449CF4A
:10099000CE01199546CF0F931F93CF93DF93EC01B0
:1009A00088810E941D03182F8A810E941D03880FD1
:1009B000991F812B9E81981709F44DC0EE810F81FC
:1009C000188529853A8594E0E902F0011124482F21
:1009D000082E000C550BE42BF52BE45CFD4F9081A9
:1009E000492F990F550B660B770B400F511F621F54
:1009F000731F4F83588769877A878E832C813D8147
:100A00002230310531F12330310551F121303105EA
:100A100011F5833001F58F819885A985BA8532E07B
:100A2000B595A795979587953A95D1F78B879C872C
:100A3000AD87BE878B899C89AD89BE898F8B988F46
:100A4000A98FBA8F0E94E0036B8B7C8B8D8B9E8B62
:100A500002C0882301F3DF91CF911F910F91089578
:100A6000882311F08330B9F78F819885A985BA85DD
:100A7000B595A79597958795D9CF8091BB03909110
:100A8000BC030C94CB048091BF039091C0030C94E1
:100A9000CB042F923F924F925F926F927F928F92F0
:100AA0009F92AF92BF92CF92DF92EF92FF920F93FD
:100AB0001F93CF93DF93CDB7DEB764970FB6F8944B
:100AC000DEBF0FBECDBF5A8B498BDC01AD90BC9011
:100AD000FB01EE0FFF1FEA0DFB1D0190F081E02DE1
:100AE0000480F581E02D309709F44DC18B0177FF2B
:100AF00002C0095F1F4FB3E015950795BA95E1F75E
:100B0000CB0168E070E00E94CB1A828093802EE0D7
:100B1000E6E1F2E0DE01119601900D922A95E1F7EF
:100B2000FE0131962F01380123E0660C771C2A95CF
:100B3000E1F71301280E391E220C331C2A0C3B1C32
:100B4000F101720130E020E0BC01675F7F4F660D6C
:100B5000771D49E0D42EA801420F531F473051059D
:100B600064F5AC01420F531F4730510531F1D29E5D
:100B7000A001D39E500D1124460F571FA289B3899F
:100B800014960D90BC91A02D7296109739F4D70150
:100B90004D935D937D012F5F3F4FDDCF12966D9199
:100BA0007C918616970649F0F901EE0FFF1FEC0FB6
:100BB000FD1F528341832F5F3F4F6901CC0CDD1C29
:100BC000E1E0F0E0EC0FFD1FCE0EDF1EBC01A8013E
:100BD0007901E01AF10A9801280F391F388B2F8705
:100BE0009701240F351F47305105ACF5161617062F
:100BF00094F54F5F5F4F61507109E7E0E49FD001CA
:100C0000E59FB00D1124EF85F889EA0FFB1FFC8BDF
:100C1000EB8BF101A685B7851496ED91FC91AEE0C2
:100C20002A0E311C309739F4F6012B893C89219327
:100C300031936F01D5CF428153818416950659F0C7
:100C4000F901EE0FFF1FEC0FFD1F4B895C895283EA
:100C500041832F5F3F4FA301480F591FD901AA0FAE
:100C6000BB1F61E070E06C0F7D1FA60FB71FBA01BC
:100C700078016C01C21AD30A1E141F0464F5F60130
:100C8000E20FF31F379739F1E1E0EE1AF108FB01AB
:100C9000EE0FFF1F3E97EA0DFB1D0190F081E02D46
:100CA0000480F581E02D67507109309729F46D9328
:100CB0007D932F5F3F4FE0CF0280F381E02D8E16B2
:100CC0009F0649F0F901EE0FFF1FEC0FFD1F728325
:100CD00061832F5F3F4FF901EE0FFF1F61E070E06E
:100CE0006C0F7D1FE60FF71F801B910B101611066E
:100CF0007CF5BC01600F711F161617064CF50150EC
:100D00001109DA01AA0FBB1F5297AA0DBB1D0D9046
:100D1000BC91A02D14960D90BC91A02D4950510965
:100D2000109729F4419351932F5F3F4FDFCF1296D5
:100D30008D919C918816990659F0220F331F81E0FE
:100D400090E08C0F9D1F280F391FD9014D935C93A4
:100D500021E030E02C0F3D1F225F3F4F41E050E08B
:100D60002415350581F0F201819191912F018F3F7A
:100D70009807B1F3880F991FE989FA89E80FF91FDD
:100D800051834083EDCF90E080E064960FB6F894F5
:100D9000DEBF0FBECDBFDF91CF911F910F91FF90AE
:100DA000EF90DF90CF90BF90AF909F908F907F900B
:100DB0006F905F904F903F902F900895089590E02E
:100DC00080E008950F931F93CF93DF93EC01888504
:100DD000882359F18985811128C00E94E0030C8184
:100DE0001D812E813F81601B710B820B930B28EEBE
:100DF00033E040E050E00E94DF1A88819981AA81A7
:100E0000BB81821B930BA40BB50BB7FF03C080E023
:100E100090E0DC0188839983AA83BB8381E0898782
:100E2000DF91CF911F910F91089588819981AA81B7
:100E3000BB81F0CF42E050E06AE672E081EC93E0E3
:100E40000C948201CF93DF93FC0101900020E9F71D
:100E50003197AF01481B590BBC0181EC93E00E9414
:100E60008201EC010E941A078C0F9D1FDF91CF9128
:100E700008958DE692E00C942207CF93DF93BC0196
:100E800081EC93E00E947401EC010E941A078C0F20
:100E90009D1FDF91CF9108952F923F924F925F92C5
:100EA0006F927F928F929F92AF92BF92CF92DF927A
:100EB000EF92FF920F931F93CF93DF936C015B012F
:100EC0002A018B0177FF02C0095F1F4F83E0159550
:100ED00007958A95E1F7C50168E070E00E94CB1A9A
:100EE000EC017C018CE190E00E943C1BF601C0808B
:100EF000D180AA0CBB1CF601EA0DFB1D0190F0810C
:100F0000E02D0480F581E02D62817381D80133E00A
:100F1000AA0FBB1F3A95E1F74C011D012C0E3D1E97
:100F2000220C331C580141E050E09A012150310954
:100F3000F7E0AF16B104BCF5EFEFAE1ABE0AFA0146
:100F4000E00FF11FEE0FFF1FEE0FFF1FEE0FFF1F51
:100F50003F016C0E7D1EFA01E295F295F07FFE27AF
:100F6000E07FFE27E20DF31DEC0DFD1D0190F081E9
:100F7000E02D0480F581E02D4F5F5F4F309729F41D
:100F8000F401619271924F01D0CF42815381641775
:100F9000750749F0F901EE0FFF1FE80FF91F718285
:100FA00060822F5F3F4FA901440F551F480F591F03
:100FB0004E01880C991C1016110694F50150110968
:100FC0005801E3E0AA0CBB1CEA95E1F7AC0EBD1E8C
:100FD000F801E295F295F07FFE27E07FFE27E80D0D
:100FE000F91DEC0DFD1D0190F081E02D0480F581CF
:100FF000E02D309739F4FA01A192B192AF012F5F41
:101000003F4FD9CF428153816417750749F0F901E9
:10101000EE0FFF1FE80FF91FB182A0822F5F3F4F35
:10102000F901EE0FFF1F4F01880E991EAD01440F0D
:10103000551FC40ED51E5901AC1ABD0A95012C0FBF
:101040003D1FC730D10531F121968E010A0F1B1FBC
:10105000AE01440F551F4C0D5D1DFA0140815181B9
:10106000FA01448155814115510529F4F401019398
:1010700011934F01E3CFFA01428153816417750741
:1010800049F0F901EE0FFF1FE80FF91F11830083EC
:101090002F5F3F4FF901EE0FFF1FE80FF91F1E14DE
:1010A0001F0424F541E0E41AF108A7014A0F5B1F71
:1010B000E701CC0FDD1FCC0DDD1D0990D881C02DBF
:1010C0000C80DD81C02D209729F4419351932F5F2F
:1010D0003F4FE5CFEA81FB816E177F0739F0220F82
:1010E000331FFC01E20FF31F51834083FC01208179
:1010F00031812F3F320749F0220F331F240D351D58
:1011000041E050E0F90151834083DF91CF911F917D
:101110000F91FF90EF90DF90CF90BF90AF909F9096
:101120008F907F906F905F904F903F902F90089599
:101130002F923F924F925F926F927F928F929F92E7
:10114000AF92BF92CF92DF92EF92FF920F931F93D5
:10115000CF93DF938C01D0E0C0E0CC24C394D12C9A
:10116000E7E0AE2EB12CF2E04F2E512CA3E08A2EF8
:10117000912CB5E06B2E712C7E0187E0E822FF24D4
:10118000E114F10409F095C0CE0107968F30910566
:1011900018F0CF970897C8F584E090E00E943C1BB8
:1011A0007C01DC011396DC92CE921297CD92DC92F8
:1011B00086E090E00E943C1BFC0111821082CE016F
:1011C00063E0959587956A95E1F793838283F5822D
:1011D000E482D801ED93FC9321960E5F1F4FC0343B
:1011E000D10551F6DF91CF911F910F91FF90EF90B4
:1011F000DF90CF90BF90AF909F908F907F906F9037
:101200005F904F903F902F900895CE0108978830BF
:10121000910518F08897089758F484E090E00E94B0
:101220003C1B7C01FC01D382C28251824082C0CF30
:10123000CE0140978830910518F04897089758F4E8
:1012400084E090E00E943C1B7C01FC01D382C282BE
:1012500091828082ADCFCE0148970897B0F484E0A8
:1012600090E00E943C1B7C01FC01D382C28284E09E
:1012700090E09183808386E090E00E943C1BFC011B
:101280001182108293828282A2CF84E090E00E9439
:101290003C1B7C01FC01D382C2827182608286E0A9
:1012A00090E00E943C1BFC011182108284E090E0DF
:1012B0008CCFB1E0EB16F104E1F484E090E00E9401
:1012C0003C1B1C01FC01F382E2821182108286E049
:1012D00090E00E943C1BFC01F182E082CE0153E0D1
:1012E000959587955A95E1F7938382833582248279
:1012F00070CFB6E0EB16F10449F484E090E00E9470
:101300003C1B1C01FC0113821282DFCFB7E0EB16FD
:10131000F10409F06AC0CE0107968F30910518F0EC
:10132000CF97089790F484E090E00E943C1B7C01EA
:10133000FC0113821282D182C08286E090E00E947A
:101340003C1BFC01B182A0823ACFCE0108978830C5
:10135000910518F08897089758F484E090E00E946F
:101360003C1B7C01FC011382128251824082E5CF3A
:10137000CE0140978830910518F04897089758F4A7
:1013800084E090E00E943C1B7C01FC0113821282ED
:1013900091828082D2CFCE0148970897A0F484E052
:1013A00090E00E943C1B7C01FC011382128284E0CD
:1013B00090E09183808386E090E00E943C1BFC01DA
:1013C000B182A0825FCF84E090E00E943C1B7C0150
:1013D000FC01138212827182608286E090E00E949A
:1013E0003C1BFC01B182A08261CF86E090E00E94AC
:1013F0003C1BFC01F182E0829E0143E0359527957C
:101400004A95E1F733832283D8018D939C93E4CEF0
:10141000CF93DF93EC0160E08E810E94460361E090
:101420008E810E94460360E08E810E9446038BE815
:1014300091E00197F1F7DF91CF910895CF92DF927C
:10144000EF92FF920F931F93CF93DF936C017C0178
:1014500087E0E80EF11CD0E0C0E0062F10E0B801F4
:101460000C2E02C0759567950A94E2F76170F7013A
:1014700081917F010E9446032196C430D10579F7FE
:10148000C601DF91CF911F910F91FF90EF90DF90F8
:10149000CF900C94080ACF92DF92EF92FF920F93B5
:1014A0001F93CF93DF93EC01F62E642F8C810E9463
:1014B00046038D818F3F19F060E00E9446030F2D97
:1014C00010E08F8584FF25C06E0187E0C80ED11C17
:1014D000F12CE12CB8010E2C02C0759567950A9489
:1014E000E2F76170F60181916F010E944603FFEF00
:1014F000EF1AFF0A88E0E816F10461F7CE01DF91E8
:10150000CF911F910F91FF90EF90DF90CF900C94AF
:10151000080AB80184E0759567958A95E1F7CE01D0
:101520000E941E0A6F2DCE01DF91CF911F910F9166
:10153000FF90EF90DF90CF900C941E0A41E00E9444
:101540004B0A81E090E0089540E00C944B0A0F9321
:101550001F93CF93DF93EC01413019F08F858860A2
:101560008F874B8B1C8A80E48D8B6E8B605C6F8BBE
:1015700061E08C810E9474038D818F3F19F061E0DE
:101580000E94740361E08E810E9474038E019801B1
:101590002C1B3D0B8F8584FD0DC084E090E00F5F18
:1015A0001F4F281739074CF461E0F80186810E942B
:1015B0007403EDCF88E090E0F2CF8BE39DE00197DC
:1015C000F1F760E08C810E94460360E08E810E940A
:1015D00046038D818F3F19F060E00E9446036F85BE
:1015E00064FD39C063E0CE010E941E0A0BE416E4DC
:1015F000C8010197F1F763E0CE010E941E0AC801FD
:101600000197F1F763E0CE010E941E0A83E592E0A4
:101610000197F1F762E0CE010E941E0A6F856062B9
:10162000CE010E94A40A84E0888B6CE0CE010E9467
:10163000A40A61E0CE010E94A40A8BE39FE1019716
:10164000F1F782E0898B66E0CE01DF91CF911F91A7
:101650000F910C94A40A6062CE010E94A40A8BE44C
:1016600096E40197F1F76F856062CE010E94A40AAB
:1016700083E592E00197F1F76F856062CE010E94E9
:10168000A40ACCCF0F931F93CF93DF93EC018B0170
:101690008B89281710F02FEF280FFE01E20FF11DA4
:1016A0006489640F6068CE010E94A40AB801CE016B
:1016B000DF91CF911F910F910C9474010F931F93A1
:1016C000CF93DF93EC0188819981009759F02A81AB
:1016D0003B812617370730F081E0DF91CF911F91D2
:1016E0000F9108958B016F5F7F4F0E94611C0097DF
:1016F00059F0998388831B830A832C813D81232B96
:1017000059F7FC011082E8CF80E0E7CFEF92FF921B
:101710000F931F93CF93DF936115710541F480E020
:10172000DF91CF911F910F91FF90EF900895411598
:101730005105B1F07B01EC010C811D81040F151FD7
:10174000B8010E945E0B882351F3288139818C8176
:101750009D81B701820F931F0E944B1D1D830C8337
:1017600081E0DECFCF93DF93EC01888199810097F0
:1017700011F00E94D81B198218821D821C821B82C4
:101780001A82DF91CF910895CF93DF93EC01FB0193
:1017900001900020E9F73197AF01461B570B0E94DB
:1017A000860B811103C0CE010E94B20BCE01DF91E6
:1017B000CF910895CF93DF93EC01FB0144815581D4
:1017C000608171810E94860B811103C0CE010E944D
:1017D000B20BCE01DF91CF910895EF92FF920F935C
:1017E0001F93CF93DF93EC017B018A01BA010E9422
:1017F0005E0B81110BC0CE010E94B20BCE01DF91B6
:10180000CF911F910F91FF90EF9008951D830C834E
:10181000B701888199810E944B1DF0CFEF92FF9212
:101820000F931F93CF93DF93CDB7DEB762970FB6B9
:10183000F894DEBF0FBECDBF8C01CB01F801118241
:10184000108213821282158214824AE09E012F5F59
:101850003F4F7901B9010E94961AF70101900020CB
:10186000E9F73197AF014E195F09B701C8010E942E
:10187000ED0B62960FB6F894DEBF0FBECDBFDF91C1
:10188000CF911F910F91FF90EF900895CF93DF9329
:10189000EC01FB018617970749F0608171816115A2
:1018A000710541F0448155810E94ED0BCE01DF911D
:1018B000CF9108950E94B20BF9CFFC0111821082E2
:1018C00013821282158214820C94460CFC01118240
:1018D00010821382128215821482FB010190002073
:1018E000E9F73197AF01461B570B0C94ED0BFC0148
:1018F00080819181009711F00C94D81B08950F936B
:101900001F93CF93DF9300D000D0CDB7DEB78C010B
:1019100067E972E0CE0101960E94660C21E030E09A
:1019200050E040E0BE016F5F7F4FC8010E94420B54
:10193000CE0101960E94770C26960FB6F894DEBF72
:101940000FBECDBFDF91CF911F910F9108950F93DF
:101950001F93CF93DF9300D000D0CDB7DEB78C01BB
:10196000FB01848195810E9768F00E9439072696C5
:101970000FB6F894DEBF0FBECDBFDF91CF911F91A0
:101980000F910895CE0101960E945D0C21E030E098
:1019900043E050E0BE016F5F7F4FC8010E94420BE1
:1019A000CE0101960E94770CE2CF0F931F93CF9345
:1019B000DF9300D000D0CDB7DEB78C0169EA72E0CA
:1019C000CE0101960E94660C30E020E04DE050E030
:1019D000BE016F5F7F4FC8010E94420BCE0101968E
:1019E0000E94770C6BEA72E0CE0101960E94660CB1
:1019F00030E020E046E050E0BE016F5F7F4FC8015D
:101A00000E94420BCE0101960E94770C26960FB6DB
:101A1000F894DEBF0FBECDBFDF91CF911F910F9124
:101A200008950F931F93CF93DF9300D000D0CDB7CD
:101A3000DEB78C01FB0184819581459768F00E9497
:101A4000390726960FB6F894DEBF0FBECDBFDF91E3
:101A5000CF911F910F910895CE0101960E945D0CC8
:101A600023E030E050E040E0BE016F5F7F4FC801EF
:101A70000E94420BCE0101960E94770CE2CF0F9399
:101A80001F93CF93DF9300D000D0CDB7DEB78C018A
:101A9000FB0184819581459768F00E94390726965D
:101AA0000FB6F894DEBF0FBECDBFDF91CF911F916F
:101AB0000F910895CE0101960E945D0C22E030E066
:101AC00050E040E0BE016F5F7F4FC8010E94420BB3
:101AD000CE0101960E94770CE2CFEF92FF920F9316
:101AE0001F93CF93DF9300D000D0CDB7DEB77C013A
:101AF000FB01048115810830110578F00E94390737
:101B000026960FB6F894DEBF0FBECDBFDF91CF9102
:101B10001F910F91FF90EF900895CE0101960E94C2
:101B20005D0C44E150E0401B510B30E020E0BE0171
:101B30006F5F7F4FC7010E94420BCE0101960E944A
:101B4000770CDECF0F931F93CF93DF9300D000D09D
:101B5000CDB7DEB78C01FB0184819581089768F0D1
:101B60000E94390726960FB6F894DEBF0FBECDBF90
:101B7000DF91CF911F910F910895CE0101960E94A0
:101B80005D0C30E020E050E040E0BE016F5F7F4F31
:101B9000C8010E94420BCE0101960E94770CE2CF51
:101BA0008F929F92AF92BF92CF92DF92EF92FF926D
:101BB0000F931F93CF93DF93CDB7DEB762970FB626
:101BC000F894DEBF0FBECDBF8C017B01FB01808589
:101BD000882309F49FC0818581119CC00E94E00385
:101BE000F70184809580A680B780681979098A09F1
:101BF0009B0928EE33E040E050E00E94DF1AF70135
:101C00006081718182819381621B730B840B950BC0
:101C100097FF03C060E070E0CB012CE330E040E0D0
:101C200050E00E94011B4B0169017B01B901CE010B
:101C300007960E940E0CFAE0CF16D104B4F46DEAB8
:101C400072E0CE0101960E94660CBE01695F7F4F73
:101C5000CE0101960E94DA0BBC01CE0107960E94CC
:101C6000460CCE0101960E94770CB401CE010D9670
:101C70000E940E0C8AE0E816F104B4F46DEA72E0FA
:101C8000CE0101960E94660CBE01635F7F4FCE01BC
:101C900001960E94DA0BBC01CE010D960E94460C03
:101CA000CE0101960E94770CBE01695F7F4FCE0185
:101CB00001960E945D0C61EC72E0CE0101960E94DB
:101CC000C40BBE01635F7F4F0E94DA0BBC01C801E9
:101CD0000E945D0CCE0101960E94770CCE010D96FC
:101CE0000E94770CCE0107960E94770CC80162967D
:101CF0000FB6F894DEBF0FBECDBFDF91CF911F911D
:101D00000F91FF90EF90DF90CF90BF90AF909F909A
:101D10008F900895F70160817181828193817DCFD9
:101D20001F920F920FB60F9211240BB60F922F93A2
:101D30003F934F935F936F937F938F939F93AF9353
:101D4000BF93EF93FF9381EC93E00E94F601FF9124
:101D5000EF91BF91AF919F918F917F916F915F9123
:101D60004F913F912F910F900BBE0F900FBE0F9090
:101D70001F9018951F920F920FB60F9211240BB659
:101D80000F922F938F939F93EF93FF93E091D10343
:101D9000F091D2038081E091D703F091D80382FDC6
:101DA0001DC090818091DA038F5F8F732091DB03D8
:101DB000821741F0E091DA03F0E0EF53FC4F958F8A
:101DC0008093DA03FF91EF919F918F912F910F9064
:101DD0000BBE0F900FBE0F901F9018958081F2CF11
:101DE0001F920F920FB60F9211242F933F938F9350
:101DF0009F93AF93BF938091990390919A03A09181
:101E00009B03B0919C033091980323E0230F2D375F
:101E100058F50196A11DB11D209398038093990355
:101E200090939A03A0939B03B0939C038091940397
:101E300090919503A0919603B09197030196A11DEF
:101E4000B11D8093940390939503A0939603B09350
:101E50009703BF91AF919F918F913F912F910F90D9
:101E60000FBE0F901F90189526E8230F0296A11D14
:101E7000B11DD2CF1F920F920FB60F9211240BB645
:101E80000F922F933F934F935F936F937F938F9313
:101E90009F93AF93BF93EF93FF93E0910E02F09166
:101EA0000F021995FF91EF91BF91AF919F918F9183
:101EB0007F916F915F914F913F912F910F900BBE4A
:101EC0000F900FBE0F901F9018951F920F920FB694
:101ED0000F9211240BB60F922F933F934F935F9362
:101EE0006F937F938F939F93AF93BF93EF93FF93E2
:101EF000E0910C02F0910D021995FF91EF91BF91C5
:101F0000AF919F918F917F916F915F914F913F9191
:101F10002F910F900BBE0F900FBE0F901F90189532
:101F20001F920F920FB60F9211240BB60F922F93A0
:101F30003F934F935F936F937F938F939F93AF9351
:101F4000BF93EF93FF93E0910202F0910302199582
:101F5000FF91EF91BF91AF919F918F917F916F9181
:101F60005F914F913F912F910F900BBE0F900FBE3D
:101F70000F901F9018951F920F920FB60F92112479
:101F80000BB60F922F933F934F935F936F937F9373
:101F90008F939F93AF93BF93EF93FF93E0910002D2
:101FA000F09101021995FF91EF91BF91AF919F912F
:101FB0008F917F916F915F914F913F912F910F90F2
:101FC0000BBE0F900FBE0F901F9018951F920F928F
:101FD0000FB60F9211240BB60F922F933F934F938E
:101FE0005F936F937F938F939F93AF93BF93EF9381
:101FF000FF93E0910A02F0910B021995FF91EF9186
:10200000BF91AF919F918F917F916F915F914F9110
:102010003F912F910F900BBE0F900FBE0F901F900E
:1020200018951F920F920FB60F9211240BB60F92B4
:102030002F933F934F935F936F937F938F939F93D0
:10204000AF93BF93EF93FF93E0910802F0910902E1
:102050001995FF91EF91BF91AF919F918F917F91D2
:102060006F915F914F913F912F910F900BBE0F9009
:102070000FBE0F901F9018951F920F920FB60F92E0
:1020800011240BB60F922F933F934F935F936F934F
:102090007F938F939F93AF93BF93EF93FF93E091C1
:1020A0000602F09107021995FF91EF91BF91AF9150
:1020B0009F918F917F916F915F914F913F912F9160
:1020C0000F900BBE0F900FBE0F901F9018951F9290
:1020D0000F920FB60F9211240BB60F922F933F93CE
:1020E0004F935F936F937F938F939F93AF93BF9320
:1020F000EF93FF93E0910402F09105021995FF918F
:10210000EF91BF91AF919F918F917F916F915F916F
:102110004F913F912F910F900BBE0F900FBE0F90DC
:102120001F901895CF93DF93CDB7DEB7C655D10971
:102130000FB6F894DEBF0FBECDBF789484B5826031
:1021400084BD84B5816084BD85B5826085BD85B55B
:10215000816085BD80916E00816080936E001092D9
:102160008100809181008260809381008091810054
:1021700081608093810080918000816080938000E5
:102180008091B10084608093B1008091B000816043
:102190008093B00080919100826080939100809143
:1021A0009100816080939100809190008160809384
:1021B00090008091A10082608093A1008091A10095
:1021C00081608093A1008091A00081608093A00035
:1021D00080912101826080932101809121018160A1
:1021E0008093210180912001816080932001809162
:1021F0007A00846080937A0080917A008260809374
:102200007A0080917A00816080937A0080917A00D0
:10221000806880937A001092C100E091D103F09120
:10222000D20382E08083E091CD03F091CE0310824F
:10223000E091CF03F091D0038FEC80831092D9030B
:10224000E091D503F091D603A6E0FA2EF082E0915A
:10225000D303F091D403808180618083E091D30324
:10226000F091D403808188608083E091D303F09162
:10227000D403808180688083E091D303F091D403FC
:1022800080818F7D80832DE335E03093070220939A
:10229000060280916900837F846080936900E99AD7
:1022A0003093050220930402809169008C7F816045
:1022B00080936900E89A23E435E03093010220938B
:1022C000000280916A008C7F816080936A00EC9AA2
:1022D000309303022093020280916A00837F84601E
:1022E00080936A00ED9A1092AA031092A9031092AB
:1022F000A8031092A7038BE190E00E943C1B8C0185
:1023000043E050E062E070E00E94B0031093C0032D
:102310000093BF038BE190E00E943C1B8C0145E1E0
:1023200050E064E170E00E94B0031093BC0300939E
:10233000BB0388E190E00E943C1B8C01DC011396FA
:102340001C921E92129782E692E011969C938E93B5
:1023500088E014968C9314978FEF15968C931597AD
:1023600089E016968C9316978AE017968C931797A8
:102370008BE018968C9318978CE019968C9319978C
:102380008DE01A968C931A971B961C921B971C969D
:102390001C921C971D961C921D971E961C921E97B0
:1023A0001F961C9241E060E1C8010E94A70A82E6E4
:1023B00092E0F801918380831093B8030093B703F0
:1023C00044E064E1C8010E94A70A8FE190E00E9406
:1023D0003C1B8C01DC011D921C9262E086E00E9495
:1023E0007403F8011182108216861786108A118AEA
:1023F000128A138A148A158AF38281E0828388E81C
:1024000093E19583848384E190E0978386831186AA
:1024100010861386128615861486178A168A118EE0
:10242000108E138E128E158E148E168E1093A60398
:102430000093A5038AE090E00E943C1BFC01B4EBF2
:102440008B2E912CA12CB12C80829182A282B382FE
:1024500010861186CC24CA94DC2C7601C482D582E5
:10246000E682F7829093B2038093B1038AE090E012
:102470000E943C1BFC0180829182A282B382108662
:102480001186C482D582E682F7829093B00380934E
:10249000AF030E94E0036093B3037093B40380938F
:1024A000B5039093B6030E94E0036093AB0370936F
:1024B000AC038093AD039093AE031092A2031092ED
:1024C000A1033E01FBE36F0E711C8E010F5F1F4FD6
:1024D00044244A94542CAE01435E5F4F2F965FAF65
:1024E0004EAF2F97CE01419661969FAF8EAF619709
:1024F000DE0119966396BFAFAEAF6397E091BF035D
:10250000F091C00383859485A585B685092E000CBE
:10251000AA0BBB0B87709927AA27BB279093BE03F2
:102520008093BD03E091BB03F091BC038385948548
:10253000A585B685092E000CAA0BBB0B87709927C1
:10254000AA27BB279093BA038093B903E090B703FF
:10255000F090B803BC016F5F7F4FC3010E940E0C67
:102560008091BD038F5B29961FAE1EAE29972B96D7
:102570001FAE1EAE2B972D961FAE1EAE2D978983D4
:102580001A82F80101900020E9F73197AF01401B52
:10259000510BB801CE01895B9F4F0E94ED0BBE012C
:1025A000695B7F4FCE018F5B9F4F0E945D0CB30133
:1025B000CE018F5B9F4F0E94DA0BBC01C8010E94C5
:1025C0005D0CB801C7010E94110DC8010E94770C73
:1025D000CE018F5B9F4F0E94770CCE01895B9F4F8E
:1025E0000E94770CC3010E94770C0E94E003C09008
:1025F000B303D090B403E090B503F090B6036C1928
:102600007D098E099F09693E73408105910570F12E
:10261000E090B703F090B8036091B1037091B203FA
:10262000C8010E94D00DB801C7010E94A20DC801C7
:102630000E94770CE090B703F090B8036091AF036D
:102640007091B003C8010E94D00DB801C7010E946B
:102650006D0DC8010E94770C0E94E0036093B303E4
:102660007093B4038093B5039093B6030E94E00384
:10267000C090AB03D090AC03E090AD03F090AE03FC
:102680006C197D098E099F09613D7740810591058F
:1026900080F08091B7039091B8030E947F0C0E9454
:1026A000E0036093AB037093AC038093AD0390930E
:1026B000AE038091A9039091AA038130910509F49A
:1026C00063C050F08230910509F4DAC0039709F431
:1026D000CAC60E94850212CFE090B703F090B803FB
:1026E0006091B1037091B203C8010E94D00DB8018E
:1026F000C7010E94A20DC8010E94770CE090B703A9
:10270000F090B8036091AF037091B003C8010E94CC
:10271000D00DB801C7010E946D0DC8010E94770C51
:102720008091B7039091B8030E94D50CE090B1035B
:10273000F090B2030E94E003D70114966D937D934D
:102740008D939C931797E1E01896EC93E090AF037C
:10275000F090B0030E94E003D70114966D937D932F
:102760008D939C931797E1E01896EC93C7010E9414
:10277000E2061092A8031092A70341E050E05093A4
:10278000AA034093A903A5CFE090B703F090B80344
:102790006FEA72E0C8010E94660CB801C7010E948E
:1027A0003F0DC8010E94770CE090A503F090A603AE
:1027B000C7010E940304D7015E968C915E9781FF4A
:1027C00088CF8D7F5E968C936091BD037091BE0320
:1027D000F3E0660F771FFA95E1F78091B9039091C6
:1027E000BA03680F791F7093A4036093A303C80111
:1027F0000E940E0C6091B9037091BA03C3010E944C
:102800000E0C6091BD037091BE03CE018F5B9F4F94
:102810000E940E0C63EC72E0CE01895B9F4F0E9418
:10282000660CBE016F5B7F4FCE01895B9F4F0E949C
:10283000DA0B6AED72E00E94C40BB3010E94DA0B5E
:1028400063EE72E00E94C40BB8010E94DA0B0E9492
:102850003D07CE01895B9F4F0E94770CCE018F5BB5
:102860009F4F0E94770CC3010E94770CC8010E9401
:10287000770CE2E0F0E0F093AA03E093A90329CFFC
:10288000E090B703F090B80361EF72E0C8010E94D6
:10289000660CB801C7010E943F0DC8010E94770C69
:1028A000E090A503F090A603C7010E940304D7019E
:1028B0005E968C915E9781FF0CCF8D7F5E968C9398
:1028C0006091BD037091BE03E3E0660F771FEA9548
:1028D000E1F78091B9039091BA03680F791F709363
:1028E000A2036093A103C8010E940E0C6091B9037A
:1028F0007091BA03C3010E940E0C6091BD037091E8
:10290000BE03CE018F5B9F4F0E940E0C66E073E00A
:10291000CE01895B9F4F0E94660CBE016F5B7F4FAB
:10292000CE01895B9F4F0E94DA0B6AED72E00E9434
:10293000C40BB3010E94DA0B63EE72E00E94C40B79
:10294000B8010E94DA0B0E943D07CE01895B9F4FC0
:102950000E94770CCE018F5B9F4F0E94770CC301C2
:102960000E94770CC8010E94770C80919F03909180
:10297000A003892B21F582E090E00E943C1B6C01B2
:102980009093A00380939F0380919D0390919E0359
:10299000892B71F480E890E00E943C1B7C010E942E
:1029A0009808F0929E03E0929D03C7010E94980848
:1029B00080919D0390919E03F60191838083A09066
:1029C0009F03B090A00380E890E00E943C1B1C0194
:1029D0008090A3039090A403D501ED91FC91A401F4
:1029E000440F551F65965FAF4EAF6597E40FF51F17
:1029F0000190F081E02DE480F58080589F4F67962C
:102A00009FAF8EAF6797E114F10409F44BC0F10159
:102A1000419251926796AEADBFAD6797EA17FB073B
:102A2000B9F7F70160817181C8010E940E0CD701CE
:102A300012966D917C91C3010E940E0C63E273E0CB
:102A4000CE018F5B9F4F0E94660CB301CE018F5B5E
:102A50009F4F0E94DA0B69EA72E00E94C40BB80132
:102A60000E94DA0B6AE273E00E94C40B0E943D07E9
:102A7000CE018F5B9F4F0E94770CC3010E94770CA1
:102A8000C8010E94770CF701808191818230910505
:102A900009F404C208F0A7C0009709F422C1019705
:102AA00009F4F7C181E393E00E9422077101D70185
:102AB0006D917D917D01C3010E940E0CB301C8018F
:102AC0000E945D0C62E473E0C8010E94C40BBC016B
:102AD00081EC93E00E947401C8010E94770CC3014D
:102AE0000E94770C6796EEADFFAD6797EE15FF0578
:102AF000F1F60E941A078091A1039091A203880F1A
:102B0000991F280E391ED1018D919C91019609F4CF
:102B10008FC485E493E00E9422078091A7039091DF
:102B2000A803E090B703F090B803892B09F063C4C1
:102B300069EA72E0C8010E94660C30E020E046E0DD
:102B400050E0B801C7010E94420BC8010E94770CF7
:102B500060E573E0C8010E94660C30E020E04DE0C3
:102B600050E0B801C7010E94420BC8010E94770CD7
:102B70008091B1039091B2030E94E206E090AF030E
:102B8000F090B0030E94E003F701648375838683AD
:102B90009783118641E050E05093A8034093A70328
:102BA0008091B7039091B8030E947F0C0E94E003CC
:102BB0006093AB037093AC038093AD039093AE032B
:102BC000E090B703F090B80362E573E0C8010E949B
:102BD000660CB801C7010E94A70CC8010E94770CBF
:102BE000E1E0F0E048CE8430910509F40AC308F42E
:102BF00003C3059709F056CFD501ED90FC9065967B
:102C0000EEADFFAD6597EE0DFF1D0190F081E02D5B
:102C10000480F581E02D309709F444CFA280B38081
:102C2000640197FE03C0B7E0CB0ED11CB3E0D5948E
:102C3000C794BA95E1F7C40168E070E00E94CB1A2E
:102C400020E1E4E2F2E0DE019B9601900D922A95EC
:102C5000E1F79601E7E0CE16D1040CF017C32F5F21
:102C60003F4F73E0220F331F7A95E1F7280F391F8A
:102C7000F901EE0FFF1FEE0DFF1D0190F081E02D19
:102C80000480F581E02D309709F003C33CA72BA702
:102C900021E030E0A60163E0440F551F6A95E1F79B
:102CA0008730910509F438C3DC011196BD01640F2A
:102CB000751FFB01EE0FFF1FEE0DFF1D0190F08150
:102CC000E02D0480F581E02D309709F0EBC2F90189
:102CD000EE0FFF1FE00FF11F73A762A72F5F3F4F9B
:102CE000E8C2940197FE02C0295F3F4F43E035954B
:102CF00027954A95E1F7C40168E070E00E94CB1A7D
:102D000048E0E4E3F2E0D80101900D924A95E1F742
:102D1000D501ED91FC9165964EAD5FAD6597E40FE1
:102D2000F51FA081B18114960D90BC91A02D129633
:102D30004D915C914130510509F063C08730910598
:102D400041F127303105ECF19401295F3F4FA68511
:102D5000B78514960D90BC91A02D109709F048C02E
:102D600094012F5F3F4FA281B38114964D915C91E6
:102D7000452B79F43E832D83019759F4C4010296C3
:102D80000480F581E02D24813581232B11F498876F
:102D90008F83D80163968EAD9FAD63978A179B078B
:102DA00009F477C08D919D918F3F980799F3880F13
:102DB000991FF101E80FF91F41E050E05183408372
:102DC000E9CFA401475F5F4FA289B38914960D90A4
:102DD000BC91A02D109739F012966D917C91672BC4
:102DE00011F45A834983121613060CF0B9CFACCFF5
:102DF00012964D915C91452B09F0B2CF3C832B8309
:102E0000AFCF181619062CF62730310564F594015A
:102E1000295F3F4FA685B78514960D90BC91A02DD4
:102E2000109739F012964D915C91452B11F43A832D
:102E30002983940121503109DF0112970D90BC9133
:102E4000A02D14964D915C91452B09F0A2CF3E83A5
:102E50002D83069709F09DCFC40102973497019006
:102E6000F081E02D90CF940129503109DF01529774
:102E70000D90BC91A02D14960D90BC91A02D109793
:102E8000C1F212964D915C91452B99F63C832B83B0
:102E9000D0CFA101B401C5010E944C0780E1E4E25A
:102EA000F2E0D80101900D928A95E1F7D501ED90FD
:102EB000FC906596EEADFFAD6597EE0DFF1D0190A0
:102EC000F081E02D248135812115310509F494C16B
:102ED000F40197FC3796B3E0F595E795BA95E1F7DD
:102EE000C40168E070E00E94CB1AD9011296CD901F
:102EF000DC90E630F1050CF080C0AF014E5F5F4F13
:102F0000A3E0440F551FAA95E1F730E020E0873099
:102F10009105D9F09C012F5F3F4F240F351FD90138
:102F2000AA0FBB1FAE0DBF1D0D90BC91A02D149616
:102F30000D90BC91A02D109729F53A83298321E0AB
:102F400030E0181619060CF0B7C2BC0161507109C7
:102F5000460F571FDA01AA0FBB1FAE0DBF1D0D9004
:102F6000BC91A02D14960D90BC91A02D109799F4B2
:102F7000D901AA0FBB1FA00FB11F4D935C932F5F08
:102F80003F4F0FC012966D917C91C616D706A9F6D9
:102F900030E020E0D6CF12966D917C91C616D70610
:102FA00039F7E230F1050CF45CC0AF014250510931
:102FB00063E0440F551F6A95E1F78730910551F1A1
:102FC000BC016F5F7F4F640F751FDB01AA0FBB1F32
:102FD000AE0DBF1D0D90BC91A02D14960D90BC910F
:102FE000A02D109769F4D901AA0FBB1FA00FB11F24
:102FF0006D937C932F5F3F4F0AC030E020E0D5CF28
:1030000012960D90BC91A02DCA16DB0661F718161A
:1030100019061CF5BC0161507109460F571FDA01F2
:10302000AA0FBB1FAE0DBF1D0D90BC91A02D149615
:103030000D90BC91A02D109751F4D901AA0FBB1F80
:10304000A00FB11F4D935C932F5F3F4F06C01296A8
:103050006D917C91C616D70681F7E730F1050CF02B
:103060005FC0AF014F5F5F4F863091056CF5DC01AB
:103070001296BA01660F771F660F771F660F771FCC
:103080006A0F7B1FDB01AA0FBB1FAE0DBF1D0D908A
:10309000BC91A02D14960D90BC91A02D109751F4C9
:1030A000D901AA0FBB1FA00FB11F6D937C932F5F97
:1030B0003F4F07C012960D90BC91A02DCA16DB069B
:1030C00079F78230910544F1A3E0440F551FAA958A
:1030D000E1F7BC0162507109460F571FDA01AA0FD0
:1030E000BB1FAE0DBF1D0D90BC91A02D14960D9071
:1030F000BC91A02D109751F4D901AA0FBB1FA00FAE
:10310000B11F4D935C932F5F3F4F06C012966D9198
:103110007C91C616D70681F71E161F060CF055C007
:1031200031978630910564F5BC016E5F7F4FAF012A
:10313000A3E0440F551FAA95E1F7460F571FDA0188
:10314000AA0FBB1FAE0DBF1D0D90BC91A02D1496F4
:103150000D90BC91A02D109751F4D901AA0FBB1F5F
:10316000A00FB11F4D935C932F5F3F4F06C0129687
:103170006D917C91C616D70681F7823091052CF1AE
:1031800073E0EE0FFF1F7A95E1F70297E80FF91F42
:10319000CF01880F991FE80EF91ED7018D919C91E0
:1031A000DC0114968D919C91009741F4220F331FFE
:1031B000D801A20FB31FED93FC9307C0DC01129658
:1031C0008D919C91C816D90689F7D8016196EEAD0C
:1031D000FFAD6197AE17BF0779F08D919D918F3F3D
:1031E0009807A1F3880F991FF101E80FF91F41E03B
:1031F00050E051834083EACFA101B401C5010E9490
:103200004905A101B401C5010E944C07A101B40107
:10321000C5010E9449058EE02F96AEADBFAD2F9738
:103220001D928A95E9F75A8249825C824B825E82BE
:103230004D8258864F825A8649865C864B865E86CA
:103240004D86588A4F865A8A498A5C8A4B8A5E8A9A
:103250004D8A588E4F8A5A8E498E5C8E4B8ED8017D
:103260009E01255D3F4FA217B30709F4C5CC8D9190
:103270009D918F3F9807B9F3880F991FF101E80FCF
:10328000F91F41E050E051834083EDCF21503109D7
:10329000E8CC42815381A416B50609F0F7CC30E0A2
:1032A00020E0F8CC0280F381E02DAE16BF0609F0D5
:1032B0000ECDF7E0CF16D1040CF071C0485F5F4F20
:1032C000A40FB51FCD01880F991FE80EF91EF70155
:1032D00080819181FC0184819581009709F057C01C
:1032E000220F331FF801E20FF31FB3A7A2A7DE01DD
:1032F0009B966A167B0609F4D5CB8D919D918F3FE5
:103300009807B9F3880F991FF101E80FF91F41E001
:1033100050E051834083EDCFBA016A5F7F4FFB01DC
:10332000EE0FFF1FEE0DFF1D0190F081E02D0480D8
:10333000F581E02D309751F4F901EE0FFF1FE00FFA
:10334000F11F73A762A72F5F3F4F06C00280F38172
:10335000E02DAE16BF0681F7F7E0CF16D104FCF4DE
:10336000425F5F4FCA01880F991FE80EF91ED7010F
:10337000ED91FC910480F581E02D3097B1F5220F9D
:10338000331FF801E20FF31F53A742A7B0CFFC0190
:1033900082819381A816B90609F0A2CFA8CFBA01FD
:1033A000685071094250510987309105D9F2019650
:1033B000680F791FCB01880F991FE80EF91ED701FE
:1033C000ED91FC910480F581E02D309741F4220FBE
:1033D000331FF801E20FF31F73A762A788CF828122
:1033E0009381A816B90699F782CF82819381A81696
:1033F000B90629F67CCFC7010E94D50CE090B10335
:10340000F090B2030E94E003D70114966D937D9370
:103410008D939C93179719961C928091AF0390916E
:10342000B0030E94E2061092A8031092A703B8CB43
:103430008FE593E00E9422078091B7039091B80333
:103440000E947F0C0E94E0036093AB037093AC0377
:103450008093AD039093AE03E090B703F090B80370
:103460006BE673E0B3CBE090B703F090B80361E094
:10347000C7010E94A40A8BE39FE10197F1F768E777
:1034800073E0C8010E94660CB801C7010E943F0D9D
:10349000C8010E94770CE090B703F090B80362E88F
:1034A00073E0C8010E94660CB801C7010E94110DAB
:1034B000C8010E94770C0DC9E230F1050CF4D1CDA2
:1034C000AF014250510963E0440F551F6A95E1F77F
:1034D00077CDE1ECF3E01382128288EE93E0A0E076
:1034E000B0E084839583A683B78380E592E09183DF
:1034F000808385EC90E09587848784EC90E09787C3
:10350000868780EC90E0918B808B81EC90E0938BB0
:10351000828B82EC90E0958B848B86EC90E0978B8D
:10352000868B118E128E138E148E0895BB274A300F
:1035300031F4992322F4BDE2909581959F4F0C942C
:10354000A21ABB27FB015527AA27880F991FAA1F7C
:10355000A41710F0A41B83955051B9F7A05DAA33AE
:1035600008F0A95DA193009779F7B111B193119279
:10357000CB010C94BB1ADC01FC01672F71917723FE
:10358000E1F7329704C07C916D9370836291AE171E
:10359000BF07C8F3089597FB072E16F4009407D0D1
:1035A00077FD09D00E94281B07FC05D03EF49095BA
:1035B00081959F4F0895709561957F4F0895A1E281
:1035C0001A2EAA1BBB1BFD010DC0AA1FBB1FEE1F9D
:1035D000FF1FA217B307E407F50720F0A21BB30BE8
:1035E000E40BF50B661F771F881F991F1A9469F764
:1035F00060957095809590959B01AC01BD01CF01C0
:103600000895052E97FB1EF400940E94181B57FD89
:1036100007D00E94DF1A07FC03D04EF40C94181B4D
:1036200050954095309521953F4F4F4F5F4F0895EE
:1036300090958095709561957F4F8F4F9F4F08951E
:10364000EE0FFF1F881F8BBF0790F691E02D199496
:10365000AA1BBB1B51E107C0AA1FBB1FA617B707B8
:1036600010F0A61BB70B881F991F5A95A9F78095D4
:103670009095BC01CD0108950F931F93CF93DF93D5
:103680008230910510F482E090E0E0916004F091C6
:10369000610430E020E0B0E0A0E0309799F421151B
:1036A000310509F44AC0281B390B24303105D8F5FF
:1036B0008A819B816115710589F1FB019383828366
:1036C000FE0111C0408151810281138148175907C1
:1036D000E0F04817590799F4109761F012960C938F
:1036E000129713961C933296CF01DF91CF911F91C1
:1036F0000F9108950093600410936104F4CF211595
:10370000310551F04217530738F0A901DB019A0146
:10371000BD01DF01F801C1CFEF01F9CF9093610442
:1037200080936004CDCFFE01E20FF31F819391934C
:103730002250310939832883D7CF20915E043091FC
:103740005F04232B41F42091120230911302309335
:103750005F0420935E042091100230911102211524
:10376000310541F42DB73EB7409114025091150236
:10377000241B350BE0915E04F0915F04E217F30720
:10378000A0F42E1B3F0B2817390778F0AC014E5FD1
:103790005F4F2417350748F04E0F5F1F50935F04AB
:1037A00040935E04819391939FCFF0E0E0E09CCF43
:1037B000CF93DF930097E9F0FC01329713821282D6
:1037C000A0916004B0916104ED0130E020E0109719
:1037D000A1F420813181820F931F20915E043091EA
:1037E0005F042817390709F061C0F0935F04E09384
:1037F0005E04DF91CF910895EA01CE17DF07E8F567
:103800004A815B819E0141155105B1F7E901FB83B6
:10381000EA8349915991C40FD51FEC17FD0761F454
:10382000808191810296840F951FE9019983888395
:10383000828193819B838A83F0E0E0E012968D91F0
:103840009C9113970097B9F52D913C911197CD015B
:103850000296820F931F20915E0430915F04281717
:10386000390739F6309751F51092610410926004CF
:10387000B0935F04A0935E04BCCFD383C283408126
:103880005181840F951FC817D90761F44E5F5F4FB0
:1038900088819981480F591F518340838A819B8178
:1038A000938382832115310509F0B0CFF093610431
:1038B000E09360049ECFFD01DC01C0CF1382128231
:1038C000D7CF4F925F926F927F928F929F92AF92DB
:1038D000BF92CF92DF92EF92FF920F931F93CF93FD
:1038E000DF938C01009799F4CB01DF91CF911F9169
:1038F0000F91FF90EF90DF90CF90BF90AF909F908F
:103900008F907F906F905F904F900C943C1BFC01C8
:10391000E60FF71F9C0122503109E217F30708F464
:10392000AEC0D901CD91DC911197C617D70720F110
:10393000C530D10578F0CE0104978617970750F06F
:10394000C61BD70B2297C193D1936D937C93CF0164
:103950000E94D81BC801DF91CF911F910F91FF905A
:10396000EF90DF90CF90BF90AF909F908F907F901F
:103970006F905F904F9008955B01AC1ABD0A4C01A7
:103980008C0E9D1EA0916004B0916104512C412CBD
:10399000F12CE12C109731F580915E0490915F0439
:1039A0008815990509F05CC04616570608F058C0FE
:1039B0008091100290911102009741F48DB79EB74B
:1039C0004091140250911502841B950BE817F907DA
:1039D00008F055C0F0935F04E0935E04F901718331
:1039E0006083B8CF8D919C91119712966C9012972D
:1039F00013967C901397A815B90559F56C0142E010
:103A0000C40ED11CCA14DB0420F1AC014A195B09B5
:103A1000DA011296159780F0628273825183408397
:103A2000D9016D937C93E114F10471F0D7011396E1
:103A3000FC93EE9312978ECF22968C0F9D1FF90167
:103A400091838083F301EFCFF0936104E0936004EE
:103A500081CF4816590608F42C017D01D3019ACF75
:103A6000CB010E943C1B7C01009749F0AE01B801DC
:103A70000E94421DC8010E94D81B87016BCF10E035
:103A800000E068CFFB01DC0102C001900D924150C3
:103A90005040D8F70895FB01DC0101900D92002001
:103AA000E1F70895F894FFCFEC03EC03EC03EC038B
:103AB000EC03EC03EC03EC03000062048000FFFF66
:103AC000FFFFFFFFFFFFFFFFFFFFFFFFFFFFFFFF06
:103AD000FFFFFFFFFFFFFFFFFFFFFFFFFFFFFFFFF6
:103AE000FFFFFFFF00FF0100010000FFFF000001DA
:103AF0000001FF000000000018028201AF01650212
:103B0000E001BE01D201000000009E0A8201DF0632
:103B1000DE060D0A004D65737361676520746F6F73
:103B20002062696720746F206265207772697474FF
:103B3000656E20617420706F736974696F6E002008
:103B40002020202020202020202020202020202075
:103B50002020003C00300053656C6563696F6E6522
:103B600020756D6120706563613A0053656C656313
:103B700074656420706965636520617420726F7775
:103B8000200020636F6C756D6E2000202D2069650C
:103B90002E20696E646578200053656C6563696FDB
:103BA0006E65206F2064657374696E6F3A005365AB
:103BB0006C65637465642064657374696E617469AF
:103BC0006F6E20617420726F772000476F742061E0
:103BD000200020706965636500476F742076616C12
:103BE0006964206D6F7665733A002C2000476F6F13
:103BF00064206D6F766521003E0050696563652025
:103C00006D6F7665642100426164206D6F76652E6C
:103C10002E2E00496E76616C6964206D6F766500AA
:103C200047616D65206F76657200506C61796572D1
:0C3C3000203F2068617320776F6E210038
:020000040003F7
:10E000000D9489F10D94B2F10D94B2F10D94B2F129
:10E010000D94B2F10D94B2F10D94B2F10D94B2F1F0
:10E020000D94B2F10D94B2F10D94B2F10D94B2F1E0
:10E030000D94B2F10D94B2F10D94B2F10D94B2F1D0
:10E040000D94B2F10D94B2F10D94B2F10D94B2F1C0
:10E050000D94B2F10D94B2F10D94B2F10D94B2F1B0
:10E060000D94B2F10D94B2F10D94B2F10D94B2F1A0
:10E070000D94B2F10D94B2F10D94B2F10D94B2F190
:10E080000D94B2F10D94B2F10D94B2F10D94B2F180
:10E090000D94B2F10D94B2F10D94B2F10D94B2F170
:10E0A0000D94B2F10D94B2F10D94B2F10D94B2F160
:10E0B0000D94B2F10D94B2F10D94B2F10D94B2F150
:10E0C0000D94B2F10D94B2F10D94B2F10D94B2F140
:10E0D0000D94B2F10D94B2F10D94B2F10D94B2F130
:10E0E0000D94B2F141546D656761323536300041AF
:10E0F000726475696E6F206578706C6F72657220DE
:10E1000073746B3530305632206279204D4C530099
:10E11000426F6F746C6F616465723E004875683F52
:10E1200000436F6D70696C6564206F6E203D200048
:10E130004350552054797065202020203D20005FF9
:10E140005F4156525F415243485F5F3D2000415658
:10E1500052204C696243205665723D20004743437C
:10E160002056657273696F6E203D20004350552024
:10E1700049442020202020203D20004C6F7720663D
:10E18000757365202020203D20004869676820665F
:10E190007573652020203D200045787420667573D6
:10E1A00065202020203D20004C6F636B2066757336
:10E1B000652020203D20004D617220203720323024
:10E1C000313300312E362E3800342E332E350056A2
:10E1D00023202020414444522020206F7020636F70
:10E1E00064652020202020696E73747275637469E1
:10E1F0006F6E2061646472202020496E74657272B3
:10E20000757074006E6F20766563746F7200726A49
:10E210006D702020006A6D70200057686174207056
:10E220006F72743A00506F7274206E6F7420737541
:10E2300070706F72746564004D7573742062652030
:10E2400061206C6574746572002000577269747483
:10E25000696E672045450052656164696E672045B7
:10E26000450045452065727220636E743D00504F35
:10E27000525400303D5A65726F2061646472003FF1
:10E280003D43505520737461747300403D454550C3
:10E29000524F4D207465737400423D426C696E6B41
:10E2A000204C454400453D44756D70204545505215
:10E2B0004F4D00463D44756D7020464C415348001B
:10E2C000483D48656C70004C3D4C69737420492F83
:10E2D0004F20506F72747300513D51756974005234
:10E2E0003D44756D702052414D00563D73686F7707
:10E2F00020696E7465727275707420566563746FF0
:10E30000727300593D506F727420626C696E6B00BD
:10E310002A0011241FBECFEFD1E2DEBFCDBF01E046
:10E320000CBF12E0A0E0B2E0EEE1FDEF03E00BBFB6
:10E3300002C007900D92A030B107D9F712E0A0E01B
:10E34000B2E001C01D92AE30B107E1F70F9460F367
:10E350000D948DFE01E20EBF0FEF0DBF11241FBE05
:10E360000D9460F30D9400F020E030E040ED57E0B4
:10E3700005C0FA013197F1F72F5F3F4F2817390792
:10E38000C0F308959C01260F311DC901A0E0B0E043
:10E390002F5F3F4FABBFFC018791882361F08093D3
:10E3A000C6008091C00086FFFCCF8091C0008064D1
:10E3B0008093C000EACF08958DE08093C6008091DD
:10E3C000C00086FFFCCF8091C00080648093C000B5
:10E3D0008AE08093C6008091C00086FFFCCF8091C8
:10E3E000C00080648093C00008950F94C2F10F9420
:10E3F000DCF10895FC019081992359F09093C600B7
:10E400008091C00086FFFCCF8091C0008064809323
:10E41000C0003196992379F70895282F982F929567
:10E420009F70892F805D8A3308F0895F8093C600D2
:10E430008091C00086FFFCCF8091C00080648093F3
:10E44000C000822F8F70982F905D9A3308F0995FEB
:10E450009093C6008091C00086FFFCCF8091C000E1
:10E4600080648093C00008959C01FB01853691056E
:10E470001CF46330710594F0C90164E670E00F94F8
:10E480002EFE605D7F4F6093C6008091C00086FFC6
:10E49000FCCF8091C00080648093C0002B30310598
:10E4A00014F43297B4F0C90164E670E00F942EFEC4
:10E4B0006AE070E00F942EFE605D7F4F6093C600AF
:10E4C0008091C00086FFFCCF8091C0008064809363
:10E4D000C000C9016AE070E00F942EFEC0968093E0
:10E4E000C6008091C00086FFFCCF8091C000806490
:10E4F0008093C00008951F93182F8EE692EE60E07F
:10E500000F94C2F11093C6008091C00086FFFCCF2B
:10E510008091C00080648093C0000F94DCF11F9153
:10E5200008952F923F924F925F926F927F928F92B7
:10E530009F92AF92BF92CF92DF92EF92FF920F9392
:10E540001F93DF93CF93CDB7DEB762970FB6F894E2
:10E55000DEBF0FBECDBF382E622ECA01DB015C01CB
:10E560006D01772420E2222E2E010894411C511CBB
:10E570008BC081E0A81680E0B80681E0C80680E084
:10E58000D80628F0C601AA27BB270F940DF2BB2797
:10E59000AD2D9C2D8B2D0F940DF28A2D0F940DF225
:10E5A0002092C6008091C00086FFFCCF8091C00001
:10E5B00080648093C0009DE29093C6008091C0006B
:10E5C00086FFFCCF8091C00080648093C0002092C1
:10E5D000C6008091C00086FFFCCF8091C00080649F
:10E5E0008093C00019828601750188249924A1E0D6
:10E5F0003A1651F03A1620F0B2E03B1661F409C029
:10E600000BBFF701779007C0C7010F9477FE782EF4
:10E6100002C0F7017080872D0F940DF22092C60082
:10E620008091C00086FFFCCF8091C0008064809301
:10E63000C000872D8052F401EF70F0708F3520F408
:10E64000E40DF51D708204C0E40DF51D8EE280839B
:10E650000894E11CF11C011D111D0894811C911CE2
:10E6600090E18916910409F0C2CF80E190E0A0E02A
:10E67000B0E0A80EB91ECA1EDB1E198AC2010F9493
:10E68000FAF10F94DCF16A94662009F072CF629679
:10E690000FB6F894DEBF0FBECDBFCF91DF911F91B3
:10E6A0000F91FF90EF90DF90CF90BF90AF909F9031
:10E6B0008F907F906F905F904F903F902F90089534
:10E6C0002F923F924F925F926F927F928F929F9282
:10E6D000AF92BF92CF92DF92EF92FF920F931F9370
:10E6E000DF93CF93CDB7DEB7CD53D1400FB6F894BB
:10E6F000DEBF0FBECDBF01E20EBF0FEF0DBF94B75F
:10E70000F894A89514BE80916000886180936000A1
:10E7100010926000789493FF05C0E0910002F091A0
:10E7200001021995279A2F9A8091C00082608093E8
:10E73000C00080E18093C40088E18093C1000000A4
:10E74000EE24FF24870144E0A42EB12CCC24DD2448
:10E7500024C0C5010197F1F70894E11CF11C011DCB
:10E76000111D21E2E2162EE4F20620E0020720E06D
:10E77000120718F031E0C32ED12CC801B70127ECE5
:10E780003BE140E050E00F9441FE611571058105C9
:10E79000910519F485B1805885B98091C00087FD35
:10E7A00003C0C114D104A9F2A6014F5F5F4FC25E3E
:10E7B000DE4F59834883CE51D140C25EDE4F8881FF
:10E7C0009981CE51D140019711F00D9410FEC05D9A
:10E7D000DE4F19821882C053D14060E0C15DDE4F28
:10E7E0001882CF52D14088249924C35DDE4F19820C
:10E7F0001882CD52D140C05EDE4F188219821A8233
:10E800001B82C052D140CE5CDE4F188219821A8220
:10E810001B82C253D140EE24FF2487010BBFF701B6
:10E8200007911691C45CDE4F19830883CC53D14005
:10E830000D940BFEC25EDE4F28813981CE51D1404E
:10E840002130310509F52091C600C25EDE4F1982E4
:10E850001882CE51D14022C02F5F3F4F4F4F5F4FA4
:10E86000213082E138078AE7480780E0580780F0C6
:10E87000C45CDE4FE881F981CC53D140EF5FFF4F9C
:10E8800019F0EE27FF27099420E030E040E050E047
:10E890008091C00087FFE0CF2091C600C35DDE4FAE
:10E8A00048815981CD52D1404F5F5F4FC35DDE4FEC
:10E8B00059834883CD52D140213209F063C64A3092
:10E8C000510508F05FC60894811C911C53E0851621
:10E8D000910409F059C600E010E018C081E280936D
:10E8E000C6008091C00086FFFCCF8091C00080648C
:10E8F0008093C0002F5F3F4F2931310579F70F9486
:10E90000DCF10F5F1F4F0530110519F020E030E0FA
:10E91000E5CF10920A0210920B0210920C02109294
:10E920000D02109206021092070210920802109235
:10E930000902109202021092030210920402109235
:10E9400005028FEE90EE60E00F94F5F180E191EE1C
:10E9500060E00F94C2F18091C00087FFFCCF9091DE
:10E96000C600903608F09F759032B8F09093C600BC
:10E970008091C00086FFFCCF8091C00080648093AE
:10E98000C000A0E2A093C6008091C00086FFFCCF2B
:10E990008091C00080648093C000983409F4D7C18E
:10E9A0009934B8F4923409F459C1933458F490333B
:10E9B00019F1903308F4E3C59F33A1F1903409F0C5
:10E9C000DEC5BDC0953409F470C1963409F0D7C5D1
:10E9D00098C1923509F42BC2933538F49C3409F46C
:10E9E000F5C1913509F0CBC518C2963509F445C279
:10E9F000993509F0C4C567C483E792EE62E00F94CD
:10EA0000F5F110920602109207021092080210927D
:10EA1000090210920A0210920B0210920C0210923C
:10EA20000D0213C18FE792EE62E00F94F5F18FEEC5
:10EA300090EE60E00F94F5F181E291EE60E00F94CA
:10EA4000C2F187EB91EE60E00F94F5F180E391EE77
:10EA500060E00F94C2F184EE90EE60E00F94F5F167
:10EA60008FE391EE60E00F94C2F186E090E061E008
:10EA700070E00F9434F20F94DCF18DE591EE60E0DC
:10EA80000F94C2F189EC91EE60E00F94F5F18EE401
:10EA900091EE60E00F94C2F183EC91EE60E00F9490
:10EAA000F5F18CE691EE60E00F94C2F18EE10F94E7
:10EAB0000DF288E90F940DF281E00F940DF20F949E
:10EAC000DCF18BE791EE60E00F94C2F119E0E0E039
:10EAD000F0E010935700E4918E2F0F940DF20F94F5
:10EAE000DCF18AE891EE60E00F94C2F1E3E0F0E03F
:10EAF00010935700E4918E2F0F940DF20F94DCF1D8
:10EB000089E991EE60E00F94C2F1E2E0F0E0109349
:10EB10005700E4918E2F0F940DF20F94DCF188EAE8
:10EB200091EE60E00F94C2F1E1E0F0E01093570045
:10EB30001491812F0F940DF20F94DCF107CF8BE825
:10EB400092EE62E00F94F5F18BE492EE60E00F94A8
:10EB5000F5F10F94DCF100E010E019C0C8016F2D51
:10EB60000F947FFEFF2031F489E492EE60E00F9471
:10EB7000C2F10BC0F092C6008091C00086FFFCCFAE
:10EB80008091C00080648093C0000F5F1F4FC80158
:10EB900081519F41A0E0B0E0ABBFFC01F790BAE229
:10EBA000FB1621F0E2E000301E07C1F60F94DCF105
:10EBB0000F94DCF187E592EE60E00F94F5F10F948D
:10EBC000DCF1CC24DD2400E010E01EC0C8010F946D
:10EBD00077FEF82E882331F489E492EE60E00F94FA
:10EBE000C2F10BC08093C6008091C00086FFFCCFAD
:10EBF0008091C00080648093C000FE1419F00894D6
:10EC0000C11CD11C0F5F1F4FC80181519F41A0E063
:10EC1000B0E0ABBFFC01E790FAE2EF1621F022E092
:10EC20000030120799F60F94DCF10F94DCF182E6C4
:10EC300092EE60E00F94C2F1C60161E070E00F94C3
:10EC400034F20F94DCF10F94DCF110920202109276
:10EC50000302109204021092050278CE89E992EE26
:10EC600062E00F94F5F1279A2F9A16C02F9880E052
:10EC700090E0E0EDF7E03197F1F7019684369105E9
:10EC8000C1F72F9A80E090E0E0EDF7E03197F1F7DF
:10EC9000019684369105C1F78091C00087FFE6CFC9
:10ECA0008091C00087FFFCCF64C485EA92EE62E0E9
:10ECB0000F94F5F140910202509103026091040219
:10ECC0007091050281E020E10F9491F2809102029F
:10ECD00090910302A0910402B091050280509F4FD1
:10ECE000AF4FBF4F8093020290930302A0930402A0
:10ECF000B093050280509041A040B04008F426CE69
:10ED0000A4CF83EB92EE62E00F94F5F140910602FE
:10ED100050910702609108027091090280E020E1A1
:10ED20000F9491F28091060290910702A09108023F
:10ED3000B091090280509F4FAF4FBF4F80930602A2
:10ED400090930702A0930802B0930902FFCD80ECD4
:10ED500092EE62E00F94F5F183E792EE60E00F949B
:10ED6000F5F18FE792EE60E00F94F5F18BE892EE0B
:10ED700060E00F94F5F189E992EE60E00F94F5F10F
:10ED800085EA92EE60E00F94F5F183EB92EE60E09D
:10ED90000F94F5F180EC92EE60E00F94F5F187ECC2
:10EDA00092EE60E00F94F5F188ED92EE60E00F9442
:10EDB000F5F18FED92EE60E00F94F5F18AEE92EEB0
:10EDC00060E00F94F5F183E093EEBDCD87EC92EE19
:10EDD00062E00F94F5F181E40F947BF282E40F94EA
:10EDE0007BF283E40F947BF284E40F947BF285E45E
:10EDF0000F947BF286E40F947BF287E40F947BF20E
:10EE000088E40F947BF28AE40F947BF28BE40F94F6
:10EE10007BF28CE40F947BF299CD88ED92EE62E068
:10EE20000F94F5F1772473948824992409C48FED05
:10EE300092EE62E00F94F5F140910A0250910B02BC
:10EE400060910C0270910D0282E020E10F9491F22A
:10EE500080910A0290910B02A0910C02B0910D02D8
:10EE600080509F4FAF4FBF4F80930A0290930B0289
:10EE7000A0930C02B0930D0269CD8AEE92EE62E08F
:10EE80000F94F5F184EE90EE60E00F94F5F18FECC5
:10EE900091EE60E00F94F5F1662477244301CC5D98
:10EEA000DE4F19821882C452D140D401C301B695F5
:10EEB000A79597958795CA5DDE4F88839983AA8326
:10EEC000BB83C652D140CC5DDE4FA881B981C4520C
:10EED000D1401196CC5DDE4FB983A883C452D14096
:10EEE000CD0162E070E00F9434F2B0E2B093C6005E
:10EEF0008091C00086FFFCCF8091C0008064809329
:10EF0000C000EDE2E093C6008091C00086FFFCCF18
:10EF10008091C00080648093C000F0E2F093C6004E
:10EF20008091C00086FFFCCF8091C00080648093F8
:10EF3000C000CA5DDE4FE880F9800A811B81C6529D
:10EF4000D140BB27A12F902F8F2D0F940DF2CA5DBA
:10EF5000DE4F8881C652D1400F940DF2B0E2FB2EF5
:10EF6000F092C6008091C00086FFFCCF8091C00067
:10EF700080648093C0000DE30093C6008091C000C0
:10EF800086FFFCCF8091C00080648093C00010E2B7
:10EF90001093C6008091C00086FFFCCF8091C00016
:10EFA00080648093C0008BBEF3012791C65DDE4F65
:10EFB0002883CA52D140A22EBB24CC24DD2408943D
:10EFC000611C711C811C911C8BBEF3018791282E42
:10EFD0003324442455240894611C711C811C911C09
:10EFE0008BBEF3013791C55DDE4F3883CB52D140E4
:10EFF0000894611C711C811C911C8BBEF30147910C
:10F00000C45DDE4F4883CC52D140ADEFEA2EAFEF66
:10F01000FA2EAFEF0A2FAFEF1A2F6E0C7F1C801E57
:10F02000911E142D032DF22CEE24EA0CFB1C0C1D5A
:10F030001D1D0F940DF220E22093C6008091C000A8
:10F0400086FFFCCF8091C00080648093C000C65DC5
:10F05000DE4F8881CA52D1400F940DF230E23093D6
:10F06000C6008091C00086FFFCCF8091C000806404
:10F070008093C000C45DDE4F8881CC52D1400F9494
:10F080000DF240E24093C6008091C00086FFFCCFA5
:10F090008091C00080648093C000C55DDE4F888190
:10F0A000CB52D1400F940DF250E25093C6008091A4
:10F0B000C00086FFFCCF8091C00080648093C000B8
:10F0C0008FEFE8168FEFF80680E0080780E018075A
:10F0D00031F484E092EE60E00F94C2F1DFC0D80119
:10F0E000C7018070907CA070B0708050904CA040A0
:10F0F000B040D1F52FEF3FE340E050E0E222F322B1
:10F1000004231523CA5DDE4FA880B980CA80DB8046
:10F11000C652D140AE0CBF1CC01ED11EAA0CBB1CD7
:10F12000CC1CDD1C8EE092EE60E00F94C2F1BB2798
:10F13000A12F902F8F2D0F940DF28E2D0F940DF285
:10F1400030E23093C6008091C00086FFFCCF8091F2
:10F15000C00080648093C0004EE34093C60080915D
:10F16000C00086FFFCCF87C08EE09EEFA0E0B0E03D
:10F17000E822F9220A231B239CE0E91694E9F90608
:10F1800090E0090790E0190709F088C0C45DDE4FE0
:10F19000A881CC52D140EA2EFF2400E010E0102FCD
:10F1A0000F2DFE2CEE24C55DDE4FB881CB52D14031
:10F1B000EB0EF11C011D111DD601C501817090706F
:10F1C000A070B070DC0199278827E80EF91E0A1F8D
:10F1D0001B1F20EF30E040E050E0A222B322C42207
:10F1E000D52241E1AA0CBB1CCC1CDD1C4A95D1F7F1
:10F1F000EA0CFB1C0C1D1D1D81E090E0A0E0B0E0BE
:10F20000282239224A225B2235E1220C331C441C7D
:10F21000551C3A95D1F7E20CF31C041D151D57013E
:10F220006801AA0CBB1CCC1CDD1C85E192EE60E0E1
:10F230000F94C2F1C801AA27BB270F940DF2BB2778
:10F24000A12F902F8F2D0F940DF28E2D0F940DF274
:10F2500090E29093C6008091C00086FFFCCF809121
:10F26000C00080648093C000AEE3A093C60080918C
:10F27000C00086FFFCCF8091C00080648093C000F6
:10F28000C601AA27BB270F940DF2BB27AD2D9C2DDD
:10F290008B2D0F940DF28A2D0F940DF20F94DCF14B
:10F2A000CC5DDE4FE881F981C452D140F99709F471
:10F2B0004DCBF4E0EF2EF12C012D112D6E0C7F1CA7
:10F2C000801E911EF2CD83E093EE62E00F94F5F183
:10F2D0008AE192EE60E00F94C2F18091C00087FF56
:10F2E000FCCF1091C6001F751093C6008091C0001E
:10F2F00086FFFCCF8091C00080648093C0000F9493
:10F30000DCF1812F81548A3108F036C1163409F4BA
:10F3100095C0173490F4133409F44EC0143430F40B
:10F320001134F1F0123409F01DC130C0143409F465
:10F3300059C0153409F016C16BC01A3409F4C4C0A1
:10F340001B3438F4173409F48FC0183409F00AC19B
:10F35000A1C01B3409F4D2C01C3409F003C1E8C0B9
:10F360008FEF81B90DC082B1809582B980E090E0C5
:10F37000E0EDF7E03197F1F70196883C9105C1F790
:10F380008091C00087FFEFCF12B8EFC08FEF84B934
:10F390000DC085B1809585B980E090E0E0EDF7E0A3
:10F3A0003197F1F70196883C9105C1F78091C00033
:10F3B00087FFEFCF15B8D9C08FEF87B90DC088B1DF
:10F3C000809588B980E090E0E0EDF7E03197F1F7C3
:10F3D0000196883C9105C1F78091C00087FFEFCF6F
:10F3E00018B8C3C08FEF8AB90DC08BB180958BB9A7
:10F3F00080E090E0E0EDF7E03197F1F70196883C8E
:10F400009105C1F78091C00087FFEFCF1BB8ADC059
:10F410008FEF8DB90DC08EB180958EB980E090E0F0
:10F42000E0EDF7E03197F1F70196883C9105C1F7DF
:10F430008091C00087FFEFCF1EB897C08FEF80BBD1
:10F440000DC081B3809581BB80E090E0E0EDF7E0F6
:10F450003197F1F70196883C9105C1F78091C00082
:10F4600087FFEFCF11BA81C08FEF83BB0DC084B38C
:10F47000809584BB80E090E0E0EDF7E03197F1F714
:10F480000196883C9105C1F78091C00087FFEFCFBE
:10F4900014BA6BC08FEF809301010FC080910201FD
:10F4A00080958093020180E090E0E0EDF7E03197F5
:10F4B000F1F70196883C9105C1F78091C00087FF64
:10F4C000EDCF1092020151C08FEF809304010FC065
:10F4D0008091050180958093050180E090E0E0ED4A
:10F4E000F7E03197F1F70196883C9105C1F78091DB
:10F4F000C00087FFEDCF1092050137C08FEF8093DA
:10F5000007010FC08091080180958093080180E079
:10F5100090E0E0EDF7E03197F1F70196883C910536
:10F52000C1F78091C00087FFEDCF109208011DC088
:10F530008FEF80930A010FC080910B01809580931B
:10F540000B0180E090E0E0EDF7E03197F1F70196F4
:10F55000883C9105C1F78091C00087FFEDCF1092E4
:10F560000B0103C085E292EEEEC98091C00087FFD7
:10F57000FCCF8091C600EAC988E392EEE4C98CE131
:10F5800091EEE1C988249924933011F1943028F444
:10F59000913089F09230B8F408C0953061F195301F
:10F5A000F0F0963009F048C043C02B3109F042C951
:10F5B00091E06BE13FC96227C15DDE4F2883CF52E6
:10F5C000D14092E037C9B22FA0E0622793E032C960
:10F5D000822F90E0A82BB92B622794E02BC92E3004
:10F5E00009F039C3622795E0C05DDE4F19821882A9
:10F5F000C053D1401FC9E1E0F0E0EC0FFD1FC05D3A
:10F60000DE4F08811981C053D140E00FF11F2083E4
:10F610000F5F1F4FC05DDE4F19830883C053D14079
:10F6200062270A171B0709F005C9D80196E002C92D
:10F63000261709F010C303C0973009F0FBC87724E0
:10F640009981933109F412C19431C8F4963009F4C8
:10F65000D8C0973050F4923009F406C1933009F4C1
:10F660006DC0913009F059C253C0913109F477C08F
:10F67000923108F0BBC0903109F04FC2F5C098310B
:10F6800009F487C0993150F4953109F4EFC09531F0
:10F6900008F4C6C1963109F040C2C2C19A3109F4DA
:10F6A0006CC09A3108F491C09B3109F45BC09D3164
:10F6B00009F033C29D81903359F48F81882311F46E
:10F6C0009EE11CC0813011F091E018C098E916C08D
:10F6D000892F807591F0903539F4E0E0F0E089E011
:10F6E0008093570094910AC0983539F4E3E0F0E034
:10F6F00089E080935700949101C090E01A821B82A8
:10F700008D818C831D829E831F8227E030E009C299
:10F710001A8288E08B8381E48C8386E58D8382E581
:10F720008E8389E48F8383E5888780E589878FE5E9
:10F730008A8782E38B872BE030E0F3C18A818139AD
:10F7400041F0823941F0803911F48FE005C080E04A
:10F7500003C082E001C08AE01A828B8344C0772410
:10F76000739482C08D81882311F48EE12CC0813086
:10F7700011F081E028C088E926C01A82E1E0F0E0BB
:10F7800089E08093570084918B831C8224E030E0D1
:10F79000C8C18B81803589F48C81883039F4E2E0EE
:10F7A000F0E089E08093570084910DC0E0E0F0E044
:10F7B00089E080935700849106C0E3E0F0E089E09F
:10F7C0008093570084911A82DFCF8D81836C99E0FA
:10F7D000E1E0F0E0082E90935700E89507B600FCB2
:10F7E000FDCF1A821B8223E030E09BC180EC8A832C
:10F7F000CE5CDE4F188219821A821B82C253D1401E
:10F800008EC18A8190E0A0E0B0E0582F44273327D2
:10F8100022278B8190E0A0E0B0E0DC0199278827C7
:10F82000282B392B4A2B5B2B8D8190E0A0E0B0E098
:10F83000282B392B4A2B5B2B8C8190E0A0E0B0E089
:10F84000BA2FA92F982F8827282B392B4A2B5B2BCF
:10F85000220F331F441F551FC05EDE4F288339839C
:10F860004A835B83C052D1401A8259C13A81C95C34
:10F87000DE4F3883C753D140CA5CDE4F1882C6536F
:10F88000D1408B81C82EDD24CA5CDE4F488159816E
:10F89000C653D140C42AD52A933109F082C0CE5C28
:10F8A000DE4F88819981AA81BB81C253D1408050AB
:10F8B000904CA340B04030F583E0CE5CDE4FE88052
:10F8C000F9800A811B81C253D140F70100935B008C
:10F8D00080935700E89507B600FCFDCFCE5CDE4F65
:10F8E000088119812A813B81C253D14000501F4FAA
:10F8F0002F4F3F4FCE5CDE4F088319832A833B8313
:10F90000C253D140C05EDE4F488159816A817B81FC
:10F91000C052D140DE011B9631E08C9111962C91A2
:10F9200011971296C75CDE4F2883C953D140C85C3B
:10F93000DE4F1882C853D14090E0C85CDE4FE881AA
:10F94000F981C853D1408E2B9F2B0C01FA01609393
:10F950005B0030935700E89511244E5F5F4F6F4F67
:10F960007F4F0EEFE02E0FEFF02ECE0CDF1CC114F8
:10F97000D10499F685E0C05EDE4F088119812A81A5
:10F980003B81C052D140F80120935B008093570027
:10F99000E89507B600FCFDCF81E180935700E8951C
:10F9A00035C0C05EDE4F88819981AA81BB81C0527B
:10F9B000D140B695A795979587957C018601ABE0D8
:10F9C000AA2EB12CAC0EBD1E0BC0D5016D915D01F0
:10F9D000C7010F947FFE0894E11CF11C01501040F8
:10F9E0000115110591F7A60160E070E0440F551F65
:10F9F000661F771FC05EDE4FE880F9800A811B8199
:10FA0000C052D1404E0D5F1D601F711F1A82C05E33
:10FA1000DE4F488359836A837B83C052D1407FC0C5
:10FA2000FA80C55CDE4FF882CB53D140C65CDE4F16
:10FA30001882CA53D1408B81C82EDD24C65CDE4FAC
:10FA400008811981CA53D140C02AD12A1A828981DA
:10FA5000BE016D5F7F4F843121F59601C05EDE4FA0
:10FA6000E880F9800A811B81C052D1400BBFF701A9
:10FA700087919691DB018C9311969C936E5F7F4FDB
:10FA8000D801C7010296A11DB11DC05EDE4F88835B
:10FA90009983AA83BB83C052D14022503040F1F6F3
:10FAA00036C0C05EDE4F288139814A815B81C052F9
:10FAB000D1400894C108D108760100E010E0089414
:10FAC000C11CD11C0894E11CF11C011D111DE20E8A
:10FAD000F31E041F151F21BDBB27A52F942F832FB5
:10FAE00082BD2F5F3F4F4F4F5F4FF89A80B5DB01CC
:10FAF0008D93BD012E153F054007510761F7C05E8C
:10FB0000DE4F288339834A835B83C052D1409601FC
:10FB10002D5F3F4FFB01108204C080EC8A8322E0FE
:10FB200030E08BE18093C6008091C00086FFFCCF5F
:10FB30008091C00080648093C000C15DDE4FF88179
:10FB4000CF52D140F093C6008091C00086FFFCCF19
:10FB50008091C00080648093C000432F3093C60022
:10FB60008091C00086FFFCCF8091C00080648093AC
:10FB7000C000922F2093C6008091C00086FFFCCF6A
:10FB80008091C00080648093C0008EE08093C600A6
:10FB90008091C00086FFFCCF8091C000806480937C
:10FBA000C00065E1C15DDE4FE880CF52D1406E25D7
:10FBB00069276427FE01319610C090819093C6009A
:10FBC0008091C00086FFFCCF31968091C000806498
:10FBD0008093C0006927215030402115310569F715
:10FBE0006093C6008091C00086FFFCCF8091C0006A
:10FBF00080648093C00085B1805885B9772081F4F6
:10FC0000C15DDE4F0881CF52D1400F5FC15DDE4F35
:10FC10000883CF52D14090E0A0E0B0E00D941AF4F8
:10FC200027982F9880E090E020ED37E0F901319798
:10FC3000F1F7019684369105C9F700008091C00064
:10FC40008D7F8093C00081E180935700E895EE2777
:10FC5000FF270994FFCF90E00D941AF497FB092E2B
:10FC600007260AD077FD04D02ED006D000201AF443
:10FC7000709561957F4F0895F6F7909581959F4F08
:10FC80000895A1E21A2EAA1BBB1BFD010DC0AA1FDD
:10FC9000BB1FEE1FFF1FA217B307E407F50720F0F5
:10FCA000A21BB30BE40BF50B661F771F881F991F70
:10FCB0001A9469F760957095809590959B01AC01B9
:10FCC000BD01CF010895AA1BBB1B51E107C0AA1FAC
:10FCD000BB1FA617B70710F0A61BB70B881F991FED
:10FCE0005A95A9F780959095BC01CD010895F99991
:10FCF000FECF92BD81BDF89A992780B50895262F31
:10FD0000F999FECF1FBA92BD81BD20BD0FB6F89400
:0EFD1000FA9AF99A0FBE01960895F894FFCF63
:00000001FF
