:100000000C9462000C94A20B0C947B0B0C948A0051
:100010000C948A000C948A000C948A000C948A0038
:100020000C948A000C948A000C948A000C948A0028
:100030000C948A000C948A000C948A000C948A0018
:100040000C94310B0C948A000C94FF0A0C94D90A7E
:100050000C948A000C948A000C948A000C948A00F8
:100060000C948A000C948A000000000024002700F1
:100070002A0000000000250028002B0000000000DE
:1000800023002600290004040404040404040202DA
:100090000202020203030303030301020408102007
:1000A0004080010204081020010204081020000012
:1000B0000008000201000003040700000000000027
:1000C00000000E1011241FBECFEFD8E0DEBFCDBF61
:1000D00022E0ACECB1E001C01D92A239B207E1F719
:1000E00011E0A0E0B1E0E6E7F6E202C005900D9273
:1000F000AC3CB107D9F710E0C2E6D0E004C02197CC
:10010000FE010E944111C136D107C9F70E94C90BF7
:100110000C9439130C940000AF92BF92CF92DF92EF
:10012000EF92FF920F931F93CF93DF936C017B01AC
:100130008B01040F151FEB015E01AE18BF08C0173D
:10014000D10759F06991D601ED91FC910190F081B0
:10015000E02DC6010995892B79F7C501DF91CF9173
:100160001F910F91FF90EF90DF90CF90BF90AF90D5
:100170000895FC01538D448D252F30E0842F90E0AD
:10018000821B930B541710F0CF9608950197089592
:10019000FC01918D828D981761F0A28DAE0FBF2F5B
:1001A000B11D5D968C91928D9F5F9F73928F90E0B1
:1001B00008958FEF9FEF0895FC01918D828D981720
:1001C00031F0828DE80FF11D858D90E008958FEF5D
:1001D0009FEF0895FC01918D228D892F90E0805C26
:1001E0009F4F821B91098F739927089581EF91E0AA
:1001F0000E94EA0021E0892B09F420E0822F089573
:1002000080E090E0892B29F00E94F60081110C9487
:1002100000000895FC01A48DA80FB92FB11DA35AA9
:10022000BF4F2C91848D90E001968F739927848F16
:10023000A689B7892C93A089B1898C918370806439
:100240008C93938D848D981306C00288F389E02DDA
:1002500080818F7D80830895EF92FF920F931F938B
:10026000CF93DF93EC0181E0888F9B8D8C8D981369
:100270001AC0E889F989808185FF15C09FB7F89475
:10028000EE89FF896083E889F989808183708064C1
:1002900080839FBF81E090E0DF91CF911F910F910C
:1002A000FF90EF900895F62E0B8D10E00F5F1F4F1B
:1002B0000F731127E02E8C8D8E110CC00FB607FC2A
:1002C000FACFE889F989808185FFF5CFCE010E94B8
:1002D0000A01F1CFEB8DEC0FFD2FF11DE35AFF4F1B
:1002E000F0829FB7F8940B8FEA89FB898081806246
:1002F000CFCFCF93DF93EC01888D8823B9F0AA8903
:10030000BB89E889F9898C9185FD03C0808186FDD0
:100310000DC00FB607FCF7CF8C9185FFF2CF80811F
:1003200085FFEDCFCE010E940A01E9CFDF91CF9189
:100330000895833081F028F4813099F08230A9F05B
:1003400008958730A9F08830C9F08430B1F48091E5
:1003500080008F7D03C0809180008F778093800024
:10036000089584B58F7784BD089584B58F7DFBCFC4
:100370008091B0008F778093B00008958091B00095
:100380008F7DF9CFCF93DF93282F30E0F901E2552D
:10039000FF4F8491F901E656FF4FD491F901EA57D6
:1003A000FF4FC491CC23A1F081110E949901EC2F41
:1003B000F0E0EE0FFF1FE458FF4FA591B491EC91D0
:1003C000ED2381E090E009F480E0DF91CF91089582
:1003D00080E090E0FACF1F93CF93DF93282F30E097
:1003E000F901E255FF4F8491F901E656FF4FD49190
:1003F000F901EA57FF4FC491CC23A9F0162F8111C0
:100400000E949901EC2FF0E0EE0FFF1FEE58FF4F16
:10041000A591B4918FB7F894EC91111108C0D095C3
:10042000DE23DC938FBFDF91CF911F910895DE2BE8
:10043000F8CFCF93DF9390E0FC01E656FF4F249175
:100440008A579F4FFC0184918823C9F090E0880F60
:10045000991FFC01E859FF4FA591B491FC01EE589A
:10046000FF4FC591D49161110DC09FB7F8948C9145
:10047000209582238C938881282328839FBFDF9136
:10048000CF910895623051F49FB7F8943C91822F38
:10049000809583238C93E8812E2BEFCF8FB7F89430
:1004A000EC912E2B2C938FBFEACF1F93CF93DF932A
:1004B000EC01862F142F688379834A835B8322E0C3
:1004C00030E03D832C8362E00E94190262E0812FBC
:1004D0000E94190288810E94C201182F8A810E94FD
:1004E000C201880F991F812B8E831F82188619865F
:1004F0001A861B861C861D861E861F86188A198AE8
:100500001A8ADF91CF911F9108952FB7F8946091C7
:10051000D1017091D2018091D3019091D4012FBF6C
:1005200008950895CF93DF93EC018B810E94C2015F
:100530009C018A81823028F481E0232B31F080E015
:1005400004C081E021303105D1F7DF91CF910895CA
:100550000F931F93CF93DF93EC01888199818130B2
:10056000910581F130F0029709F474C01982188264
:1005700024C08C859D85892B89F00E9485020A897B
:100580001B892C893D89601B710B820B930B683E84
:1005900073408105910510F01D861C86CE010E94D6
:1005A0009202882351F00E9485026E877F87888B94
:1005B000998B81E090E099838883DF91CF911F919F
:1005C0000F9108950E9485020E851F85288939891B
:1005D000AB01BC01401B510B620B730B8E819F81E1
:1005E000B0E0A0E0481759076A077B0730F3CE0157
:1005F0000E949202882309F4B9CF1B861A868E8D39
:100600008E7F86608E8F8C859D85892B31F40E942C
:1006100085026A8B7B8B8C8B9D8B88859985019657
:10062000998788878C859D8501969D878C87EE8923
:10063000FF89309711F0CE0109958C859D85029731
:1006400030F0EC8DFD8D309711F0CE01099582E0F0
:1006500090E0B1CFCE010E9492028823C9F10E949E
:1006600085020E851F8528893989AB01BC01401B95
:10067000510B620B730B8C819D81B0E0A0E0481799
:1006800059076A077B0708F498CF0E9485020E85F8
:100690001F8528893989DC01CB01801B910BA20BB6
:1006A000B30B2A853B85820F931F9B878A870E9405
:1006B00085026E877F87888B998BE88DF98D3097BF
:1006C00011F0CE0109958E8D8B7F81608E8F75CF55
:1006D000EA8DFB8D309709F449CFCE01099546CFBD
:1006E000CF93DF93EC010E94A8028E8D81FF06C09C
:1006F0008D7F8E8F81E0DF91CF91089580E0FBCFD9
:10070000089590E080E008950F931F93CF93DF93B7
:10071000EC0188810E94C201182F8A810E94C201C7
:10072000880F991F812B9E81981709F44DC0EE8187
:100730000F81188529853A8594E0E902F00111249A
:10074000482F082E000C550BE42BF52BE25FFE4FD3
:100750009081492F990F550B660B770B400F511F56
:10076000621F731F4F83588769877A878E832C8116
:100770003D812230310531F12330310551F12130F5
:10078000310511F5833001F58F819885A985BA85EA
:1007900032E0B595A795979587953A95D1F78B87D0
:1007A0009C87AD87BE878B899C89AD89BE898F8BDD
:1007B000988FA98FBA8F0E9485026B8B7C8B8D8B53
:1007C0009E8B02C0882301F3DF91CF911F910F917F
:1007D0000895882311F08330B9F78F819885A98512
:1007E000BA85B595A79597958795D9CF8091DD0165
:1007F0009091DE010C9484038091DB019091DC01E7
:100800000C94840390E080E008950F931F93CF939E
:10081000DF93EC018885882359F18985811128C0EF
:100820000E9485020C811D812E813F81601B710B0E
:10083000820B930B28EE33E040E050E00E94EC1076
:1008400088819981AA81BB81821B930BA40BB50B74
:10085000B7FF03C080E090E0DC0188839983AA831E
:10086000BB8381E08987DF91CF911F910F9108951C
:1008700088819981AA81BB81F0CFCF93DF93FC015E
:1008800001900020E9F73197AF01481B590BBC01DB
:1008900081EF91E00E948C00EC0142E050E06CE3BB
:1008A00071E081EF91E00E948C008C0F9D1FDF9121
:1008B000CF9108958FE391E00C943D0480E591E0A1
:1008C0000C943D044F925F926F927F928F929F9211
:1008D000AF92BF92CF92DF92EF92FF920F931F934E
:1008E000CF93DF936C015B018B0177FF02C0095F3F
:1008F0001F4F83E0159507958A95E1F7C50168E0DC
:1009000070E00E94D810EC017C018CE190E00E9424
:100910004711F601C080D180AA0CBB1CF601EA0D7C
:10092000FB1D0190F081E02D0480F581E02D6281B6
:100930007381D80133E0AA0FBB1F3A95E1F74C0150
:100940002D014C0E5D1E440C551C580141E050E039
:100950009A0121503109F7E0AF16B104BCF5EFEF71
:10096000AE1ABE0AFA01E00FF11FEE0FFF1FEE0FE5
:10097000FF1FEE0FFF1F3F016C0E7D1EFA01E29577
:10098000F295F07FFE27E07FFE27E40DF51DEC0DCC
:10099000FD1D0190F081E02D0480F581E02D4F5F79
:1009A0005F4F309729F4F401619271924F01D0CFDB
:1009B000428153816417750749F0F901EE0FFF1F5B
:1009C000E80FF91F718260822F5F3F4FA901440F2A
:1009D000551F480F591F4E01880C991C10161106FF
:1009E00094F5015011095801E3E0AA0CBB1CEA95EB
:1009F000E1F7AC0EBD1EF801E295F295F07FFE27FF
:100A0000E07FFE27E80DF91DEC0DFD1D0190F08142
:100A1000E02D0480F581E02D309739F4FA01A192A0
:100A2000B192AF012F5F3F4FD9CF428153816417FD
:100A3000750749F0F901EE0FFF1FE80FF91FB182AA
:100A4000A0822F5F3F4FF901EE0FFF1F4F01880E6D
:100A5000991EAD01440F551FC40ED51E5901AC1A85
:100A6000BD0A95012C0F3D1FC730D10531F12196EC
:100A70008D010C0F1D1FAE01440F551F4C0D5D1D48
:100A8000FA0140815181FA01448155814115510596
:100A900029F4F401019311934F01E3CFFA0142814C
:100AA00053816417750749F0F901EE0FFF1FE80F36
:100AB000F91F118300832F5F3F4FF901EE0FFF1FD6
:100AC000E80FF91F1E141F0424F541E0E41AF10891
:100AD000A7014A0F5B1FE701CC0FDD1FCC0DDD1D09
:100AE0000990D881C02D0C80DD81C02D209729F47C
:100AF000419351932F5F3F4FE5CFEA81FB816E1702
:100B00007F0739F0220F331FFC01E20FF31F5183DF
:100B10004083DF91CF911F910F91FF90EF90DF9075
:100B2000CF90BF90AF909F908F907F906F905F908D
:100B30004F9008952F923F924F925F926F927F92C3
:100B40008F929F92AF92BF92CF92DF92EF92FF92DD
:100B50000F931F93CF93DF938C01D0E0C0E0CC24A0
:100B6000C394D12CE7E0AE2EB12CF2E04F2E512CE5
:100B7000A3E08A2E912CB5E06B2E712C7E0187E0CC
:100B8000E822FF24E114F10409F095C0CE01079694
:100B90008F30910518F0CF970897C8F584E090E062
:100BA0000E9447117C01DC011396DC92CE921297D1
:100BB000CD92DC9286E090E00E944711FC01118208
:100BC0001082CE0163E0959587956A95E1F793834E
:100BD0008283F582E482D801ED93FC9321960E5F27
:100BE0001F4FC034D10551F6DF91CF911F910F9166
:100BF000FF90EF90DF90CF90BF90AF909F908F903D
:100C00007F906F905F904F903F902F900895CE010E
:100C100008978830910518F08897089758F484E071
:100C200090E00E9447117C01FC01D382C282518274
:100C30004082C0CFCE0140978830910518F0489788
:100C4000089758F484E090E00E9447117C01FC0171
:100C5000D382C28291828082ADCFCE01489708971D
:100C6000B0F484E090E00E9447117C01FC01D38243
:100C7000C28284E090E09183808386E090E00E94CD
:100C80004711FC011182108293828282A2CF84E0FC
:100C900090E00E9447117C01FC01D382C2827182E4
:100CA000608286E090E00E944711FC011182108270
:100CB00084E090E08CCFB1E0EB16F104E1F484E045
:100CC00090E00E9447111C01FC01F382E282118234
:100CD000108286E090E00E944711FC01F182E082E0
:100CE000CE0153E0959587955A95E1F793838283DA
:100CF0003582248270CFB6E0EB16F10449F484E02B
:100D000090E00E9447111C01FC0113821282DFCF88
:100D1000B7E0EB16F10409F06AC0CE0107968F30F8
:100D2000910518F0CF97089790F484E090E00E9426
:100D300047117C01FC0113821282D182C08286E0BD
:100D400090E00E944711FC01B182A0823ACFCE010F
:100D500008978830910518F08897089758F484E030
:100D600090E00E9447117C01FC01138212825182A3
:100D70004082E5CFCE0140978830910518F0489722
:100D8000089758F484E090E00E9447117C01FC0130
:100D90001382128291828082D2CFCE014897089727
:100DA000A0F484E090E00E9447117C01FC011382D2
:100DB000128284E090E09183808386E090E00E943C
:100DC0004711FC01B182A0825FCF84E090E00E94D5
:100DD00047117C01FC01138212827182608286E0DD
:100DE00090E00E944711FC01B182A08261CF86E0B1
:100DF00090E00E944711FC01F182E0829E0143E0F5
:100E0000359527954A95E1F733832283D8018D9351
:100E10009C93E4CECF93DF93EC0160E08E810E943F
:100E2000EB0161E08E810E94EB0160E08E810E9407
:100E3000EB018BE891E00197F1F7DF91CF910895F5
:100E4000CF92DF92EF92FF920F931F93CF93DF9396
:100E50006C017C0187E0E80EF11CD0E0C0E0062FB9
:100E600010E0B8010C2E02C0759567950A94E2F760
:100E70006170F70181917F010E94EB012196C430DE
:100E8000D10579F7C601DF91CF911F910F91FF90A6
:100E9000EF90DF90CF900C940A07CF92DF92EF9201
:100EA000FF920F931F93CF93DF93EC01F62E642FE5
:100EB0008C810E94EB018D818F3F19F060E00E94D0
:100EC000EB010F2D10E08F8584FF25C06E0187E0B8
:100ED000C80ED11CF12CE12CB8010E2C02C0759566
:100EE00067950A94E2F76170F60181916F010E94A3
:100EF000EB01FFEFEF1AFF0A88E0E816F10461F753
:100F0000CE01DF91CF911F910F91FF90EF90DF9075
:100F1000CF900C940A07B80184E0759567958A957F
:100F2000E1F7CE010E9420076F2DCE01DF91CF9116
:100F30001F910F91FF90EF90DF90CF900C942007BE
:100F400041E00E944D0781E090E0089540E00C945C
:100F50004D070F931F93CF93DF93EC01413019F0AE
:100F60008F8588608F874B8B1C8A80E48D8B6E8B7E
:100F7000605C6F8B61E08C810E9419028D818F3FD4
:100F800019F061E00E94190261E08E810E9419024D
:100F90008E0198012C1B3D0B8F8584FD0DC084E0D4
:100FA00090E00F5F1F4F281739074CF461E0F801FC
:100FB00086810E941902EDCF88E090E0F2CF8BE3AA
:100FC0009DE00197F1F760E08C810E94EB0160E009
:100FD0008E810E94EB018D818F3F19F060E00E94AD
:100FE000EB016F8564FD39C063E0CE010E942007EC
:100FF0000BE416E4C8010197F1F763E0CE010E940B
:101000002007C8010197F1F763E0CE010E94200795
:1010100083E592E00197F1F762E0CE010E9420079C
:101020006F856062CE010E94A60784E0888B6CE029
:10103000CE010E94A60761E0CE010E94A6078BE3C5
:101040009FE10197F1F782E0898B66E0CE01DF91A5
:10105000CF911F910F910C94A6076062CE010E9460
:10106000A6078BE496E40197F1F76F856062CE01E5
:101070000E94A60783E592E00197F1F76F85606211
:10108000CE010E94A607CCCF0F931F93CF93DF937F
:10109000EC018B018B89281710F02FEF280FFE0130
:1010A000E20FF11D6489640F6068CE010E94A607FB
:1010B000F8014481558160817181E881F981028064
:1010C000F381E02DCE01DF91CF911F910F91099413
:1010D0000F931F93CF93DF93EC0188819981009741
:1010E00059F02A813B812617370730F081E0DF91E4
:1010F000CF911F910F9108958B016F5F7F4F0E94D9
:101100006C12009759F0998388831B830A832C8182
:101110003D81232B59F7FC011082E8CF80E0E7CF17
:10112000CF93DF93EC0188819981009711F00E94A1
:10113000E311198218821D821C821B821A82DF91A0
:10114000CF910895EF92FF920F931F93CF93DF9368
:10115000EC01FB01E080F180E114F10411F1048164
:10116000158101151105A9F08C819D81080F191FAA
:10117000B801CE010E946808882399F0288139813E
:101180008C819D81B701820F931F0E9432131D83B2
:101190000C83CE01DF91CF911F910F91FF90EF90C3
:1011A0000895CE010E949008F4CFEF92FF920F9322
:1011B0001F93CF93DF93EC017B018A01BA010E9458
:1011C000680881110BC0CE010E949008CE01DF910A
:1011D000CF911F910F91FF90EF9008951D830C8385
:1011E000B701888199810E943213F0CFFB010190F1
:1011F0000020E9F73197AF01461B570B0C94D50837
:101200000F931F93CF93DF93CDB7DEB762970FB6DF
:10121000F894DEBF0FBECDBF8C01CB01F801118267
:10122000108213821282158214824AE0BE016F5F1F
:101230007F4F0E943B10BE016F5F7F4FC8010E942D
:10124000F60862960FB6F894DEBF0FBECDBFDF91F1
:10125000CF911F910F910895CF93DF93EC01FB0184
:101260008617970749F0608171816115710541F01A
:10127000448155810E94D508CE01DF91CF91089518
:101280000E949008F9CFFC01118210821382128211
:10129000158214820C942C09FC0111821082138295
:1012A000128215821482FB0101900020E9F7319728
:1012B000AF01461B570B0C94D508FC01808191812E
:1012C000009711F00C94E31108950F931F93CF939F
:1012D000DF9300D000D000D0CDB7DEB7009741F04B
:1012E0008C01FB0184819581459768F00E945E0422
:1012F00026960FB6F894DEBF0FBECDBFDF91CF911B
:101300001F910F910895CE0101960E94430922E09A
:1013100030E050E040E0BE016F5F7F4FC8010E94A7
:101320004408CE0101960E945D09E2CFEF92FF9240
:101330000F931F93CF93DF9300D000D000D0CDB791
:10134000DEB7009751F08C01FB01E480F580F8E0F6
:10135000EF16F10478F00E945E0426960FB6F8941A
:10136000DEBF0FBECDBFDF91CF911F910F91FF90D8
:10137000EF900895CE0101960E94430944E150E0A8
:101380004E195F0930E020E0BE016F5F7F4FC8015A
:101390000E944408CE0101960E945D09DECF0F93A2
:1013A0001F93CF93DF9300D000D000D0CDB7DEB72E
:1013B000009741F08C01FB0184819581089768F0CA
:1013C0000E945E0426960FB6F894DEBF0FBECDBF16
:1013D000DF91CF911F910F910895CE0101960E9448
:1013E000430930E020E050E040E0BE016F5F7F4FF6
:1013F000C8010E944408CE0101960E945D09E2CF17
:101400008F929F92AF92BF92CF92DF92EF92FF9214
:101410000F931F93CF93DF93CDB7DEB762970FB6CD
:10142000F894DEBF0FBECDBF8C017B01FB01808530
:10143000882309F4B3C081858111B0C00E94850260
:10144000F70184809580A680B780681979098A0998
:101450009B0928EE33E040E050E00E94EC10F701D9
:101460006081718182819381621B730B840B950B68
:1014700097FF03C060E070E0CB012CE330E040E078
:1014800050E00E940E114B0169017B01B901CE01B0
:1014900007960E940009FAE0CF16D104B4F46AE777
:1014A00071E0CE0101960E944C09BE01695F7F4F39
:1014B000CE0101960E94A208BC01CE0107960E94AF
:1014C0002C09CE0101960E945D09B401CE010D9652
:1014D0000E9400098AE0E816F104B4F46AE771E0BA
:1014E000CE0101960E944C09BE01635F7F4FCE0181
:1014F00001960E94A208BC01CE010D960E942C0903
:10150000CE0101960E945D09BE01695F7F4FCE0149
:1015100001960E944309ED80FE80EFEFEE1AFE0A6D
:10152000B701CE0101960E9468088823E9F129815C
:101530003A818D819E8169E971E0820F931F0E943B
:101540003213FE82ED82BE01635F7F4FCE010196B2
:101550000E94A208BC01C8010E944309CE01019665
:101560000E945D09CE010D960E945D09CE0107968D
:101570000E945D09C80162960FB6F894DEBF0FBEE7
:10158000CDBFDF91CF911F910F91FF90EF90DF9032
:10159000CF90BF90AF909F908F900895F70160819A
:1015A00071818281938169CFCE0101960E9490085A
:1015B000CACF1F920F920FB60F9211242F933F9311
:1015C0004F935F936F937F938F939F93AF93BF934B
:1015D000EF93FF9381EF91E00E940A01FF91EF9159
:1015E000BF91AF919F918F917F916F915F914F913B
:1015F0003F912F910F900FBE0F901F9018951F9243
:101600000F920FB60F9211242F938F939F93EF9306
:10161000FF93E0910102F09102028081E0910702C4
:10162000F091080282FD1BC0908180910A028F5FB9
:101630008F7320910B02821741F0E0910A02F0E0D3
:10164000EF50FE4F958F80930A02FF91EF919F918B
:101650008F912F910F900FBE0F901F901895808142
:10166000F4CF1F920F920FB60F9211242F933F9336
:101670008F939F93AF93BF938091D1019091D201AB
:10168000A091D301B091D4013091D00123E0230F78
:101690002D3758F50196A11DB11D2093D0018093DF
:1016A000D1019093D201A093D301B093D401809142
:1016B000CC019091CD01A091CE01B091CF010196C6
:1016C000A11DB11D8093CC019093CD01A093CE01BB
:1016D000B093CF01BF91AF919F918F913F912F9187
:1016E0000F900FBE0F901F90189526E8230F0296BB
:1016F000A11DB11DD2CF1F920F920FB60F921124D0
:101700002F933F934F935F936F937F938F939F9309
:10171000AF93BF93EF93FF93E0910201F091030128
:101720000995FF91EF91BF91AF919F918F917F911B
:101730006F915F914F913F912F910F900FBE0F903E
:101740001F9018951F920F920FB60F9211242F938E
:101750003F934F935F936F937F938F939F93AF9339
:10176000BF93EF93FF93E0910001F0910101099580
:10177000FF91EF91BF91AF919F918F917F916F9169
:101780005F914F913F912F910F900FBE0F901F903F
:101790001895CF93DF93CDB7DEB7EA970FB6F894DD
:1017A000DEBF0FBECDBF789484B5826084BD84B5A2
:1017B000816084BD85B5826085BD85B5816085BD4C
:1017C00080916E00816080936E0010928100809104
:1017D000810082608093810080918100816080938C
:1017E0008100809180008160809380008091B100B1
:1017F00084608093B1008091B00081608093B000DC
:1018000080917A00846080937A0080917A0082606F
:1018100080937A0080917A00816080937A00809131
:101820007A00806880937A001092C100E0910102F2
:10183000F091020282E08083E091FD01F091FE01CF
:101840001082E091FF01F09100028FEC80831092F2
:101850000902E0910502F091060256E0F52EF082B1
:10186000E0910302F0910402808180618083E09125
:101870000302F0910402808188608083E09103027A
:10188000F0910402808180688083E0910302F091EE
:10189000040280818F7D80832CEF33E0309301013F
:1018A00020930001809169008C7F816080936900A2
:1018B000E89A309303012093020180916900837FAD
:1018C000846080936900E99A0E9485026093E30135
:1018D0007093E4018093E5019093E6018BE190E041
:1018E0000E9447118C0145E150E064E170E00E94E4
:1018F00055021093DE010093DD018BE190E00E9420
:1019000047118C0143E050E062E070E00E94550214
:101910001093DC010093DB018FE190E00E944711FE
:101920008C01DC011D921C9262E086E00E9419028B
:10193000F8011182108216861786108A118A128A7F
:10194000138A148A158AF382FF24F394F28288E8BA
:1019500093E19583848384E190E097838683118665
:1019600010861386128615861486118E108E138E9D
:10197000128E158E148E168E1093F0010093EF01C7
:101980008AE594E0978B868B88E190E00E9447116E
:101990008C01DC0113961C921E92129784E391E055
:1019A00011969C938E9388E014968C9314978FEFE6
:1019B00015968C93159789E016968C9316978AE066
:1019C00017968C9317978BE018968C9318978CE04A
:1019D00019968C9319978DE01A968C931A971B96EB
:1019E0001C921B971C961C921C971D961C921D976F
:1019F0001E961C921E971F961C9241E060E1C80142
:101A00000E94A9071093EC010093EB0144E064E10C
:101A1000C8010E94A9078AE090E00E9447118C014A
:101A200064EB462E512C612C712CFC0140825182BA
:101A3000628273821086118688248A94982C5401BD
:101A400084829582A682B7829093E2018093E1011D
:101A50008AE090E00E944711FC014082518262823C
:101A600073821086118684829582A682B7829093B3
:101A7000E0018093DF01B801CE0101960E94000AC7
:101A8000BE016F5F7F4F8091EB019091EC010E944E
:101A9000CF09CE0101960E945D096091DF0170912E
:101AA000E001CE0101960E94000ABE016F5F7F4FE8
:101AB0008091EB019091EC010E949609CE01019674
:101AC0000E945D096CE771E0CE0101960E944C090D
:101AD00030E020E046E050E0BE016F5F7F4F809134
:101AE000EB019091EC010E944408CE0101960E9406
:101AF0005D091092EE011092ED010091E10110914B
:101B0000E2010E948502F8016483758386839783CE
:101B1000F0860091DF011091E0010E948502D8015A
:101B200014966D937D938D939C9317971896FC92C2
:101B3000C8010E940504E0E0EE2EE0E0FE2E01E088
:101B400010E08091EF019091F0010E94A802809135
:101B5000EF019091F0010E947003882321F08EE73D
:101B600091E00E943D048091ED019091EE0100977B
:101B700009F002C167E871E0CE0101960E944C09AC
:101B8000BE016F5F7F4F8091EB019091EC010E944D
:101B90006509CE0101960E945D098091EF01909147
:101BA000F0010E9470038823B9F08091E9019091BF
:101BB000EA0143E0880F991F4A95E1F72091E70178
:101BC0003091E801820F931F9093070180930601E3
:101BD0001093EE010093ED010E9485028090E301D5
:101BE0009090E401A090E501B090E60168197909B0
:101BF0008A099B09693E734081059105A0F16091B6
:101C0000E1017091E201CE0101960E94000ABE013D
:101C10006F5F7F4F8091EB019091EC010E94CF09A3
:101C2000CE0101960E945D096091DF017091E00193
:101C3000CE0101960E94000ABE016F5F7F4F809126
:101C4000EB019091EC010E949609CE0101960E9451
:101C50005D090E9485026093E3017093E401809323
:101C6000E5019093E601E091DD01F091DE018385CD
:101C70009485A585B6859093E8018093E701E0916E
:101C8000DB01F091DC0183859485A585B685909371
:101C9000EA018093E9011AA619A61CA61BA61EA696
:101CA0001DA6092E000CAA0BBB0BBC01CD01677051
:101CB0007727882799276F5F7F4F8F4F9F4F2AE0A5
:101CC000AE014F5F5F4F0E944610BE016F5F7F4FB6
:101CD000CE0189960E94F6088091E70187708F5B9C
:101CE0001EAA1DAA18AE1FAA1AAE19AE89831A829F
:101CF000BE016F5F7F4FCE01C5960E94F608BE0100
:101D00006B5C7F4FCE018F960E944309BE01675DD9
:101D10007F4FCE018F960E94A208BC01CE01839610
:101D20000E944309C090EB01D090EC01C114D10492
:101D300039F08FA198A5459708F45AC10E945E0416
:101D4000CE0183960E945D09CE018F960E945D09A7
:101D5000CE01C5960E945D09CE0189960E945D095B
:101D6000E114F10409F4EDCE0E94F600882309F491
:101D7000E8CE0E940000E5CE019709F02DCF6BE977
:101D800071E0CE0101960E944C09BE016F5F7F4F4A
:101D90008091EB019091EC010E946509CE010196C2
:101DA0000E945D098091EF019091F0010E94700303
:101DB000882309F411CF8091E9019091EA0133E081
:101DC000880F991F3A95E1F72091E7013091E801DA
:101DD000820F931F90930501809304018091D70196
:101DE0009091D801892B21F582E090E00E94471163
:101DF0005C019093D8018093D7018091D501909197
:101E0000D601892B71F480E890E00E9447116C01A3
:101E10000E949A05D092D601C092D501C6010E94B7
:101E20009A058091D5019091D601F5019183808327
:101E3000C090D701D090D801A0900601B0900701C2
:101E4000D601ED91FC91C501880F991FE80FF91F8C
:101E50000190F081E02D0480F581E02D309759F05C
:101E6000808191818230910509F46DC008F467C0CA
:101E7000059708F468C0D12CC12CF601208131816E
:101E800080910401909105012817390709F0A3C03A
:101E900080EB91E00E943D048091D9019091DA019C
:101EA0006BEB71E0892B09F053C0CE0101960E94C3
:101EB0004C0930E020E046E050E0BE016F5F7F4F0C
:101EC0008091EB019091EC010E944408CE010196B3
:101ED0000E945D096DEB71E0CE0101960E944C09F4
:101EE00030E020E04DE050E0BE016F5F7F4F809119
:101EF000EB019091EC010E944408CE0101960E94F2
:101F00005D098091E1019091E2010E940504C09079
:101F1000DF01D090E0010E948502D60114966D93F6
:101F20007D938D939C93179719961C921093DA01C9
:101F30000093D9011092EE011092ED014DCEB50142
:101F4000C6010E946204B501C6010E94620493CFDB
:101F5000CE0101960E944C0930E020E04DE050E0B7
:101F6000BE016F5F7F4F8091EB019091EC010E9469
:101F70004408CE0101960E945D096CE771E0CE0134
:101F800001960E944C0930E020E046E050E0BE019E
:101F90006F5F7F4F8091EB019091EC010E944408AC
:101FA000CE0101960E945D09C090E101D090E2014E
:101FB0000E948502F6016483758386839783118668
:101FC0008091DF019091E0010E9405041092DA01F6
:101FD0001092D901AFCF8FEB91E00E943D04F2E067
:101FE000CF0ED11C20E8C216D10409F046CFA2CFF3
:101FF000BE016D5D7F4FCE0101960E94430923E033
:1020000030E050E040E0BE016F5F7F4FC6010E94AC
:102010004408CE0101960E945D0992CEE1EFF1E005
:102020001382128288EE93E0A0E0B0E0848395836F
:10203000A683B78382E291E09183808385EC90E070
:102040009587848784EC90E09787868780EC90E082
:10205000918B808B81EC90E0938B828B82EC90E073
:10206000958B848B86EC90E0978B868B118E128EED
:10207000138E148E0895BB274A3031F4992322F42D
:10208000BDE2909581959F4F0C947810BB272A3024
:1020900051F4992342F4BDE2909580957095619535
:1020A0007F4F8F4F9F4F0C945610BB27FA01A62FDE
:1020B0006217710581059105330B30FB66F0AA2785
:1020C000660F771F881F991FAA1FA21710F0A21B67
:1020D00063953850A9F7A05DAA3308F0A95DA193D4
:1020E00036F7B111B1931082CA010C949110BB273D
:1020F000FB015527AA27880F991FAA1FA41710F0C4
:10210000A41B83955051B9F7A05DAA3308F0A95DCF
:10211000A193009779F7B111B1931192CB010C946F
:102120009110DC01FC01672F71917723E1F7329761
:1021300004C07C916D9370836291AE17BF07C8F3A2
:1021400008952F923F924F925F926F927F928F925B
:102150009F92AF92BF92CF92DF92EF92FF920F9336
:102160001F93CF93DF93CDB7DEB7CA1BDB0B0FB640
:10217000F894DEBF0FBECDBF09942A8839884888FD
:102180005F846E847D848C849B84AA84B984C88493
:10219000DF80EE80FD800C811B81AA81B981CE0F8A
:1021A000D11D0FB6F894DEBF0FBECDBFED0108956F
:1021B00097FB072E16F4009407D077FD09D00E94F4
:1021C0002D1107FC05D03EF4909581959F4F089501
:1021D000709561957F4F0895A1E21A2EAA1BBB1B33
:1021E000FD010DC0AA1FBB1FEE1FFF1FA217B307E3
:1021F000E407F50720F0A21BB30BE40BF50B661FF9
:10220000771F881F991F1A9469F7609570958095BC
:1022100090959B01AC01BD01CF010895052E97FB60
:102220001EF400940E94251157FD07D00E94EC1067
:1022300007FC03D04EF40C94251150954095309531
:1022400021953F4F4F4F5F4F089590958095709522
:1022500061957F4F8F4F9F4F0895AA1BBB1B51E184
:1022600007C0AA1FBB1FA617B70710F0A61BB70B06
:10227000881F991F5A95A9F780959095BC01CD01AB
:102280000895EE0FFF1F0590F491E02D09940F9330
:102290001F93CF93DF938230910510F482E090E09A
:1022A000E0919002F091910230E020E0B0E0A0E0F7
:1022B000309799F42115310509F44AC0281B390BD0
:1022C00024303105D8F58A819B816115710589F12A
:1022D000FB0193838283FE0111C040815181028101
:1022E000138148175907E0F04817590799F41097D8
:1022F00061F012960C93129713961C933296CF01AD
:10230000DF91CF911F910F91089500939002109348
:102310009102F4CF2115310551F04217530738F0DF
:10232000A901DB019A01BD01DF01F801C1CFEF0175
:10233000F9CF9093910280939002CDCFFE01E20FEE
:10234000F31F819391932250310939832883D7CF8A
:1023500020918E0230918F02232B41F420910A01AB
:1023600030910B0130938F0220938E02209108014F
:10237000309109012115310541F42DB73EB7409147
:102380000C0150910D01241B350BE0918E02F09150
:102390008F02E217F307A0F42E1B3F0B2817390713
:1023A00078F0AC014E5F5F4F2417350748F04E0FB1
:1023B0005F1F50938F0240938E02819391939FCF22
:1023C000F0E0E0E09CCFCF93DF930097E9F0FC01D1
:1023D000329713821282A0919002B0919102ED0186
:1023E00030E020E01097A1F420813181820F931F0B
:1023F00020918E0230918F022817390709F061C0B1
:10240000F0938F02E0938E02DF91CF910895EA015D
:10241000CE17DF07E8F54A815B819E014115510522
:10242000B1F7E901FB83EA8349915991C40FD51FA4
:10243000EC17FD0761F4808191810296840F951F4E
:10244000E90199838883828193819B838A83F0E069
:10245000E0E012968D919C9113970097B9F52D911C
:102460003C911197CD010296820F931F20918E020D
:1024700030918F022817390739F6309751F51092AD
:10248000910210929002B0938F02A0938E02BCCF63
:10249000D383C28340815181840F951FC817D90708
:1024A00061F44E5F5F4F88819981480F591F5183B6
:1024B00040838A819B81938382832115310509F0B2
:1024C000B0CFF0939102E09390029ECFFD01DC012A
:1024D000C0CF13821282D7CFB0E0A0E0E2E7F2E1F2
:1024E0000C94A3108C01009751F4CB010E9447116A
:1024F0008C01C801CDB7DEB7E0E10C94BF10FC0140
:10250000E60FF71F9C0122503109E217F30708F488
:102510009DC0D901CD91DC911197C617D70798F0CE
:10252000C530D10530F3CE0104978617970708F31D
:10253000C61BD70B2297C193D1936D937C93CF0188
:102540000E94E311D6CF5B01AC1ABD0A4C018C0E80
:102550009D1EA0919002B0919102512C412CF12C22
:10256000E12C109731F580918E0290918F028815A1
:10257000990509F05CC04616570608F058C08091CE
:10258000080190910901009741F48DB79EB74091E1
:102590000C0150910D01841B950BE817F90708F009
:1025A00055C0F0938F02E0938E02F901718360832E
:1025B000A0CF8D919C91119712966C9012971396C3
:1025C0007C901397A815B90559F56C0142E0C40E2B
:1025D000D11CCA14DB0420F1AC014A195B09DA01F1
:1025E0001296159780F06282738251834083D901DD
:1025F0006D937C93E114F10471F0D7011396FC9371
:10260000EE93129776CF22968C0F9D1FF90191833E
:102610008083F301EFCFF0939102E093900269CFB2
:102620004816590608F42C017D01D3019ACFCB013D
:102630000E9447117C01009749F0AE01B8010E9449
:102640002913C8010E94E311870153CF10E000E075
:1026500050CFFB01DC0102C001900D92415050406F
:10266000D8F70895FB01DC0101900D920020E1F7FD
:062670000895F894FFCF6D
:1026760091029102FFFFFFFF00009202800000FF1F
:102686000100010000FFFF0000010001FF00000043
:1026960000002C018C00B9007901EA00C800DC00BA
:1026A60000000000A0078C00810380030D0A005380
:1026B600686974207761732070726573736564004E
:1026C6004D65737361676520746F6F20626967205B
:1026D600746F206265207772697474656E20617408
:1026E60020706F736974696F6E0030003C0054454A
:1026F6005354455354450053656C6563696F6E6565
:1027060020756D6120706563613A0053656C656381
:10271600696F6E65206F2064657374696E6F3A0029
:10272600476F6F64206D6F7665210020003E004282
:0C2736006164206D6F76652E2E2E000071
:00000001FF
